{
  "transactions": [
    {
      "hash": "0xac4f7545ea3689e1ebe4d6ec055732aa8e399132a6dfe554a6e281a73b328437",
      "transactionType": "CREATE",
      "contractName": "MockMintableToken",
      "contractAddress": "0x0b306bf915c4d645ff596e518faf3f9669b97016",
      "function": null,
      "arguments": [
        "Token A",
        "TKNA",
        "18"
      ],
      "transaction": {
        "from": "0xf39fd6e51aad88f6f4ce6ab8827279cfffb92266",
        "gas": "0xa1c65",
        "value": "0x0",
        "input": "0x60a06040523461033057610ad08038038061001981610334565b9283398101906060818303126103305780516001600160401b0381116103305782610045918301610359565b60208201519092906001600160401b03811161033057604091610069918401610359565b91015160ff811681036103305782516001600160401b03811161024157600354600181811c91168015610326575b602082101461022357601f81116102c3575b506020601f821160011461026057819293945f92610255575b50508160011b915f199060031b1c1916176003555b81516001600160401b03811161024157600454600181811c91168015610237575b602082101461022357601f81116101c0575b50602092601f821160011461015f57928192935f92610154575b50508160011b915f199060031b1c1916176004555b60805260405161072590816103ab8239608051816103c70152f35b015190505f80610124565b601f1982169360045f52805f20915f5b8681106101a85750836001959610610190575b505050811b01600455610139565b01515f1960f88460031b161c191690555f8080610182565b9192602060018192868501518155019401920161016f565b60045f527f8a35acfbc15ff81a39ae7d344fd709f28e8600b4aa8c65c6b64bfe7fe36bd19b601f830160051c81019160208410610219575b601f0160051c01905b81811061020e575061010a565b5f8155600101610201565b90915081906101f8565b634e487b7160e01b5f52602260045260245ffd5b90607f16906100f8565b634e487b7160e01b5f52604160045260245ffd5b015190505f806100c2565b601f1982169060035f52805f20915f5b8181106102ab57509583600195969710610293575b505050811b016003556100d7565b01515f1960f88460031b161c191690555f8080610285565b9192602060018192868b015181550194019201610270565b60035f527fc2575a0e9e593c00f959f8c92f12db2869c3395a3b0502d05e2516446f71f85b601f830160051c8101916020841061031c575b601f0160051c01905b81811061031157506100a9565b5f8155600101610304565b90915081906102fb565b90607f1690610097565b5f80fd5b6040519190601f01601f191682016001600160401b0381118382101761024157604052565b81601f82011215610330578051906001600160401b03821161024157610388601f8301601f1916602001610334565b928284526020838301011161033057815f9260208093018386015e830101529056fe6080806040526004361015610012575f80fd5b5f3560e01c90816306fdde031461056957508063095ea7b3146104e757806318160ddd146104ca57806323b872dd146103eb578063313ce567146103ae57806340c10f191461030c57806342966c681461026c57806370a082311461023557806395d89b411461011a578063a9059cbb146100e95763dd62ed3e14610095575f80fd5b346100e55760403660031901126100e5576100ae610662565b6100b6610678565b6001600160a01b039182165f908152600160209081526040808320949093168252928352819020549051908152f35b5f80fd5b346100e55760403660031901126100e55761010f610105610662565b602435903361068e565b602060405160018152f35b346100e5575f3660031901126100e5576040515f6004548060011c9060018116801561022b575b602083108114610217578285529081156101fb57506001146101a6575b50819003601f01601f191681019067ffffffffffffffff8211818310176101925761018e82918260405282610638565b0390f35b634e487b7160e01b5f52604160045260245ffd5b905060045f527f8a35acfbc15ff81a39ae7d344fd709f28e8600b4aa8c65c6b64bfe7fe36bd19b5f905b8282106101e55750602091508201018261015e565b60018160209254838588010152019101906101d0565b90506020925060ff191682840152151560051b8201018261015e565b634e487b7160e01b5f52602260045260245ffd5b91607f1691610141565b346100e55760203660031901126100e5576001600160a01b03610256610662565b165f525f602052602060405f2054604051908152f35b346100e55760203660031901126100e55760043533156102f957335f525f60205260405f20548181106102e05790805f923384528360205203604083205580600254036002556040519081527fddf252ad1be2c89b69c2b068fc378daa952ba7f163c4a11628f55a4df523b3ef60203392a3005b63391434e360e21b5f523360045260245260445260645ffd5b634b637e8f60e11b5f525f60045260245ffd5b346100e55760403660031901126100e557610325610662565b6001600160a01b0316602435811561039b57600254908082018092116103875760207fddf252ad1be2c89b69c2b068fc378daa952ba7f163c4a11628f55a4df523b3ef915f9360025584845283825260408420818154019055604051908152a3005b634e487b7160e01b5f52601160045260245ffd5b63ec442f0560e01b5f525f60045260245ffd5b346100e5575f3660031901126100e557602060405160ff7f0000000000000000000000000000000000000000000000000000000000000000168152f35b346100e55760603660031901126100e557610404610662565b61040c610678565b6001600160a01b0382165f818152600160209081526040808320338452909152902054909260443592915f19811061044a575b5061010f935061068e565b8381106104af57841561049c5733156104895761010f945f52600160205260405f2060018060a01b0333165f526020528360405f20910390558461043f565b634a1406b160e11b5f525f60045260245ffd5b63e602df0560e01b5f525f60045260245ffd5b8390637dc7a0d960e11b5f523360045260245260445260645ffd5b346100e5575f3660031901126100e5576020600254604051908152f35b346100e55760403660031901126100e557610500610662565b60243590331561049c576001600160a01b031690811561048957335f52600160205260405f20825f526020528060405f20556040519081527f8c5be1e5ebec7d5bd14f71427d1e84f3dd0314c0f7b2291e5b200ac8c7c3b92560203392a3602060405160018152f35b346100e5575f3660031901126100e5575f6003548060011c9060018116801561062e575b602083108114610217578285529081156101fb57506001146105d95750819003601f01601f191681019067ffffffffffffffff8211818310176101925761018e82918260405282610638565b905060035f527fc2575a0e9e593c00f959f8c92f12db2869c3395a3b0502d05e2516446f71f85b5f905b8282106106185750602091508201018261015e565b6001816020925483858801015201910190610603565b91607f169161058d565b602060409281835280519182918282860152018484015e5f828201840152601f01601f1916010190565b600435906001600160a01b03821682036100e557565b602435906001600160a01b03821682036100e557565b6001600160a01b03169081156102f9576001600160a01b031691821561039b57815f525f60205260405f205481811061070c57817fddf252ad1be2c89b69c2b068fc378daa952ba7f163c4a11628f55a4df523b3ef92602092855f525f84520360405f2055845f525f825260405f20818154019055604051908152a3565b8263391434e360e21b5f5260045260245260445260645ffd000000000000000000000000000000000000000000000000000000000000006000000000000000000000000000000000000000000000000000000000000000a000000000000000000000000000000000000000000000000000000000000000120000000000000000000000000000000000000000000000000000000000000007546f6b656e2041000000000000000000000000000000000000000000000000000000000000000000000000000000000000000000000000000000000000000004544b4e4100000000000000000000000000000000000000000000000000000000",
        "nonce": "0xf",
        "chainId": "0x7a6a"
      },
      "additionalContracts": [],
      "isFixedGasLimit": false
    },
    {
      "hash": "0xc2d51a8382ca5897a83c935fe91b533a66010b4b63801cf87081f1524b1c89a7",
      "transactionType": "CALL",
      "contractName": "MockMintableToken",
      "contractAddress": "0x0b306bf915c4d645ff596e518faf3f9669b97016",
      "function": "mint(address,uint256)",
      "arguments": [
        "0xf39Fd6e51aad88F6F4ce6aB8827279cffFb92266",
        "1000000000000000000000000"
      ],
      "transaction": {
        "from": "0xf39fd6e51aad88f6f4ce6ab8827279cfffb92266",
        "to": "0x0b306bf915c4d645ff596e518faf3f9669b97016",
        "gas": "0x16f7a",
        "value": "0x0",
        "input": "0x40c10f19000000000000000000000000f39fd6e51aad88f6f4ce6ab8827279cfffb9226600000000000000000000000000000000000000000000d3c21bcecceda1000000",
        "nonce": "0x10",
        "chainId": "0x7a6a"
      },
      "additionalContracts": [],
      "isFixedGasLimit": false
    },
    {
      "hash": "0xc4854859bb0cfd7a8f0c677a6129f0c9a15c1694cd7edbc3b592541e6c1cb6e7",
      "transactionType": "CALL",
      "contractName": "MockMintableToken",
      "contractAddress": "0x0b306bf915c4d645ff596e518faf3f9669b97016",
      "function": "mint(address,uint256)",
      "arguments": [
        "0x70997970C51812dc3A010C7d01b50e0d17dc79C8",
        "1000000000000000000000000"
      ],
      "transaction": {
        "from": "0xf39fd6e51aad88f6f4ce6ab8827279cfffb92266",
        "to": "0x0b306bf915c4d645ff596e518faf3f9669b97016",
        "gas": "0x12368",
        "value": "0x0",
        "input": "0x40c10f1900000000000000000000000070997970c51812dc3a010c7d01b50e0d17dc79c800000000000000000000000000000000000000000000d3c21bcecceda1000000",
        "nonce": "0x11",
        "chainId": "0x7a6a"
      },
      "additionalContracts": [],
      "isFixedGasLimit": false
    },
    {
      "hash": "0x964dbbdfd1db441987988f4f922221101cc4dcd26074e794d347591a9d965e74",
      "transactionType": "CALL",
      "contractName": "MockMintableToken",
      "contractAddress": "0x0b306bf915c4d645ff596e518faf3f9669b97016",
      "function": "mint(address,uint256)",
      "arguments": [
        "0x3C44CdDdB6a900fa2b585dd299e03d12FA4293BC",
        "1000000000000000000000000"
      ],
      "transaction": {
        "from": "0xf39fd6e51aad88f6f4ce6ab8827279cfffb92266",
        "to": "0x0b306bf915c4d645ff596e518faf3f9669b97016",
        "gas": "0x11327",
        "value": "0x0",
        "input": "0x40c10f190000000000000000000000003c44cdddb6a900fa2b585dd299e03d12fa4293bc00000000000000000000000000000000000000000000d3c21bcecceda1000000",
        "nonce": "0x12",
        "chainId": "0x7a6a"
      },
      "additionalContracts": [],
      "isFixedGasLimit": false
    },
    {
      "hash": "0x4c06a737cc9e88a7affcbae9d08837a3af9da4823323cf8d5528e0cbd0a2ac65",
      "transactionType": "CREATE",
      "contractName": "MockMintableToken",
      "contractAddress": "0x3aa5ebb10dc797cac828524e59a333d0a371443c",
      "function": null,
      "arguments": [
        "Token B",
        "TKNB",
        "18"
      ],
      "transaction": {
        "from": "0xf39fd6e51aad88f6f4ce6ab8827279cfffb92266",
        "gas": "0xa1c65",
        "value": "0x0",
        "input": "0x60a06040523461033057610ad08038038061001981610334565b9283398101906060818303126103305780516001600160401b0381116103305782610045918301610359565b60208201519092906001600160401b03811161033057604091610069918401610359565b91015160ff811681036103305782516001600160401b03811161024157600354600181811c91168015610326575b602082101461022357601f81116102c3575b506020601f821160011461026057819293945f92610255575b50508160011b915f199060031b1c1916176003555b81516001600160401b03811161024157600454600181811c91168015610237575b602082101461022357601f81116101c0575b50602092601f821160011461015f57928192935f92610154575b50508160011b915f199060031b1c1916176004555b60805260405161072590816103ab8239608051816103c70152f35b015190505f80610124565b601f1982169360045f52805f20915f5b8681106101a85750836001959610610190575b505050811b01600455610139565b01515f1960f88460031b161c191690555f8080610182565b9192602060018192868501518155019401920161016f565b60045f527f8a35acfbc15ff81a39ae7d344fd709f28e8600b4aa8c65c6b64bfe7fe36bd19b601f830160051c81019160208410610219575b601f0160051c01905b81811061020e575061010a565b5f8155600101610201565b90915081906101f8565b634e487b7160e01b5f52602260045260245ffd5b90607f16906100f8565b634e487b7160e01b5f52604160045260245ffd5b015190505f806100c2565b601f1982169060035f52805f20915f5b8181106102ab57509583600195969710610293575b505050811b016003556100d7565b01515f1960f88460031b161c191690555f8080610285565b9192602060018192868b015181550194019201610270565b60035f527fc2575a0e9e593c00f959f8c92f12db2869c3395a3b0502d05e2516446f71f85b601f830160051c8101916020841061031c575b601f0160051c01905b81811061031157506100a9565b5f8155600101610304565b90915081906102fb565b90607f1690610097565b5f80fd5b6040519190601f01601f191682016001600160401b0381118382101761024157604052565b81601f82011215610330578051906001600160401b03821161024157610388601f8301601f1916602001610334565b928284526020838301011161033057815f9260208093018386015e830101529056fe6080806040526004361015610012575f80fd5b5f3560e01c90816306fdde031461056957508063095ea7b3146104e757806318160ddd146104ca57806323b872dd146103eb578063313ce567146103ae57806340c10f191461030c57806342966c681461026c57806370a082311461023557806395d89b411461011a578063a9059cbb146100e95763dd62ed3e14610095575f80fd5b346100e55760403660031901126100e5576100ae610662565b6100b6610678565b6001600160a01b039182165f908152600160209081526040808320949093168252928352819020549051908152f35b5f80fd5b346100e55760403660031901126100e55761010f610105610662565b602435903361068e565b602060405160018152f35b346100e5575f3660031901126100e5576040515f6004548060011c9060018116801561022b575b602083108114610217578285529081156101fb57506001146101a6575b50819003601f01601f191681019067ffffffffffffffff8211818310176101925761018e82918260405282610638565b0390f35b634e487b7160e01b5f52604160045260245ffd5b905060045f527f8a35acfbc15ff81a39ae7d344fd709f28e8600b4aa8c65c6b64bfe7fe36bd19b5f905b8282106101e55750602091508201018261015e565b60018160209254838588010152019101906101d0565b90506020925060ff191682840152151560051b8201018261015e565b634e487b7160e01b5f52602260045260245ffd5b91607f1691610141565b346100e55760203660031901126100e5576001600160a01b03610256610662565b165f525f602052602060405f2054604051908152f35b346100e55760203660031901126100e55760043533156102f957335f525f60205260405f20548181106102e05790805f923384528360205203604083205580600254036002556040519081527fddf252ad1be2c89b69c2b068fc378daa952ba7f163c4a11628f55a4df523b3ef60203392a3005b63391434e360e21b5f523360045260245260445260645ffd5b634b637e8f60e11b5f525f60045260245ffd5b346100e55760403660031901126100e557610325610662565b6001600160a01b0316602435811561039b57600254908082018092116103875760207fddf252ad1be2c89b69c2b068fc378daa952ba7f163c4a11628f55a4df523b3ef915f9360025584845283825260408420818154019055604051908152a3005b634e487b7160e01b5f52601160045260245ffd5b63ec442f0560e01b5f525f60045260245ffd5b346100e5575f3660031901126100e557602060405160ff7f0000000000000000000000000000000000000000000000000000000000000000168152f35b346100e55760603660031901126100e557610404610662565b61040c610678565b6001600160a01b0382165f818152600160209081526040808320338452909152902054909260443592915f19811061044a575b5061010f935061068e565b8381106104af57841561049c5733156104895761010f945f52600160205260405f2060018060a01b0333165f526020528360405f20910390558461043f565b634a1406b160e11b5f525f60045260245ffd5b63e602df0560e01b5f525f60045260245ffd5b8390637dc7a0d960e11b5f523360045260245260445260645ffd5b346100e5575f3660031901126100e5576020600254604051908152f35b346100e55760403660031901126100e557610500610662565b60243590331561049c576001600160a01b031690811561048957335f52600160205260405f20825f526020528060405f20556040519081527f8c5be1e5ebec7d5bd14f71427d1e84f3dd0314c0f7b2291e5b200ac8c7c3b92560203392a3602060405160018152f35b346100e5575f3660031901126100e5575f6003548060011c9060018116801561062e575b602083108114610217578285529081156101fb57506001146105d95750819003601f01601f191681019067ffffffffffffffff8211818310176101925761018e82918260405282610638565b905060035f527fc2575a0e9e593c00f959f8c92f12db2869c3395a3b0502d05e2516446f71f85b5f905b8282106106185750602091508201018261015e565b6001816020925483858801015201910190610603565b91607f169161058d565b602060409281835280519182918282860152018484015e5f828201840152601f01601f1916010190565b600435906001600160a01b03821682036100e557565b602435906001600160a01b03821682036100e557565b6001600160a01b03169081156102f9576001600160a01b031691821561039b57815f525f60205260405f205481811061070c57817fddf252ad1be2c89b69c2b068fc378daa952ba7f163c4a11628f55a4df523b3ef92602092855f525f84520360405f2055845f525f825260405f20818154019055604051908152a3565b8263391434e360e21b5f5260045260245260445260645ffd000000000000000000000000000000000000000000000000000000000000006000000000000000000000000000000000000000000000000000000000000000a000000000000000000000000000000000000000000000000000000000000000120000000000000000000000000000000000000000000000000000000000000007546f6b656e2042000000000000000000000000000000000000000000000000000000000000000000000000000000000000000000000000000000000000000004544b4e4200000000000000000000000000000000000000000000000000000000",
        "nonce": "0x13",
        "chainId": "0x7a6a"
      },
      "additionalContracts": [],
      "isFixedGasLimit": false
    },
    {
      "hash": "0x695dee7bffbf88ab753ca36843e571168a9d02d3efd113de064d82ea6bcadafc",
      "transactionType": "CALL",
      "contractName": "MockMintableToken",
      "contractAddress": "0x3aa5ebb10dc797cac828524e59a333d0a371443c",
      "function": "mint(address,uint256)",
      "arguments": [
        "0xf39Fd6e51aad88F6F4ce6aB8827279cffFb92266",
        "1000000000000000000000000"
      ],
      "transaction": {
        "from": "0xf39fd6e51aad88f6f4ce6ab8827279cfffb92266",
        "to": "0x3aa5ebb10dc797cac828524e59a333d0a371443c",
        "gas": "0x16f7a",
        "value": "0x0",
        "input": "0x40c10f19000000000000000000000000f39fd6e51aad88f6f4ce6ab8827279cfffb9226600000000000000000000000000000000000000000000d3c21bcecceda1000000",
        "nonce": "0x14",
        "chainId": "0x7a6a"
      },
      "additionalContracts": [],
      "isFixedGasLimit": false
    },
    {
      "hash": "0x48143cebf4a89c7ca9cd3ff06ab6025a5007330502a3c11d02c8e22c9c2ed0e2",
      "transactionType": "CALL",
      "contractName": "MockMintableToken",
      "contractAddress": "0x3aa5ebb10dc797cac828524e59a333d0a371443c",
      "function": "mint(address,uint256)",
      "arguments": [
        "0x70997970C51812dc3A010C7d01b50e0d17dc79C8",
        "1000000000000000000000000"
      ],
      "transaction": {
        "from": "0xf39fd6e51aad88f6f4ce6ab8827279cfffb92266",
        "to": "0x3aa5ebb10dc797cac828524e59a333d0a371443c",
        "gas": "0x12368",
        "value": "0x0",
        "input": "0x40c10f1900000000000000000000000070997970c51812dc3a010c7d01b50e0d17dc79c800000000000000000000000000000000000000000000d3c21bcecceda1000000",
        "nonce": "0x15",
        "chainId": "0x7a6a"
      },
      "additionalContracts": [],
      "isFixedGasLimit": false
    },
    {
      "hash": "0x10087a048ebe6e689c200bec780ec40fbe5b2fa4e08f5cf1ef3fb57d8a8a020f",
      "transactionType": "CALL",
      "contractName": "MockMintableToken",
      "contractAddress": "0x3aa5ebb10dc797cac828524e59a333d0a371443c",
      "function": "mint(address,uint256)",
      "arguments": [
        "0x3C44CdDdB6a900fa2b585dd299e03d12FA4293BC",
        "1000000000000000000000000"
      ],
      "transaction": {
        "from": "0xf39fd6e51aad88f6f4ce6ab8827279cfffb92266",
        "to": "0x3aa5ebb10dc797cac828524e59a333d0a371443c",
        "gas": "0x11327",
        "value": "0x0",
        "input": "0x40c10f190000000000000000000000003c44cdddb6a900fa2b585dd299e03d12fa4293bc00000000000000000000000000000000000000000000d3c21bcecceda1000000",
        "nonce": "0x16",
        "chainId": "0x7a6a"
      },
      "additionalContracts": [],
      "isFixedGasLimit": false
    },
    {
      "hash": "0x145e02687c96749abff14b26973ac2b4b25c7f675ef84df0b0a23aece47f266e",
      "transactionType": "CREATE",
      "contractName": "MockMintableToken",
      "contractAddress": "0x322813fd9a801c5507c9de605d63cea4f2ce6c44",
      "function": null,
      "arguments": [
        "Token C",
        "TKNC",
        "18"
      ],
      "transaction": {
        "from": "0xf39fd6e51aad88f6f4ce6ab8827279cfffb92266",
        "gas": "0xa1c65",
        "value": "0x0",
        "input": "0x60a06040523461033057610ad08038038061001981610334565b9283398101906060818303126103305780516001600160401b0381116103305782610045918301610359565b60208201519092906001600160401b03811161033057604091610069918401610359565b91015160ff811681036103305782516001600160401b03811161024157600354600181811c91168015610326575b602082101461022357601f81116102c3575b506020601f821160011461026057819293945f92610255575b50508160011b915f199060031b1c1916176003555b81516001600160401b03811161024157600454600181811c91168015610237575b602082101461022357601f81116101c0575b50602092601f821160011461015f57928192935f92610154575b50508160011b915f199060031b1c1916176004555b60805260405161072590816103ab8239608051816103c70152f35b015190505f80610124565b601f1982169360045f52805f20915f5b8681106101a85750836001959610610190575b505050811b01600455610139565b01515f1960f88460031b161c191690555f8080610182565b9192602060018192868501518155019401920161016f565b60045f527f8a35acfbc15ff81a39ae7d344fd709f28e8600b4aa8c65c6b64bfe7fe36bd19b601f830160051c81019160208410610219575b601f0160051c01905b81811061020e575061010a565b5f8155600101610201565b90915081906101f8565b634e487b7160e01b5f52602260045260245ffd5b90607f16906100f8565b634e487b7160e01b5f52604160045260245ffd5b015190505f806100c2565b601f1982169060035f52805f20915f5b8181106102ab57509583600195969710610293575b505050811b016003556100d7565b01515f1960f88460031b161c191690555f8080610285565b9192602060018192868b015181550194019201610270565b60035f527fc2575a0e9e593c00f959f8c92f12db2869c3395a3b0502d05e2516446f71f85b601f830160051c8101916020841061031c575b601f0160051c01905b81811061031157506100a9565b5f8155600101610304565b90915081906102fb565b90607f1690610097565b5f80fd5b6040519190601f01601f191682016001600160401b0381118382101761024157604052565b81601f82011215610330578051906001600160401b03821161024157610388601f8301601f1916602001610334565b928284526020838301011161033057815f9260208093018386015e830101529056fe6080806040526004361015610012575f80fd5b5f3560e01c90816306fdde031461056957508063095ea7b3146104e757806318160ddd146104ca57806323b872dd146103eb578063313ce567146103ae57806340c10f191461030c57806342966c681461026c57806370a082311461023557806395d89b411461011a578063a9059cbb146100e95763dd62ed3e14610095575f80fd5b346100e55760403660031901126100e5576100ae610662565b6100b6610678565b6001600160a01b039182165f908152600160209081526040808320949093168252928352819020549051908152f35b5f80fd5b346100e55760403660031901126100e55761010f610105610662565b602435903361068e565b602060405160018152f35b346100e5575f3660031901126100e5576040515f6004548060011c9060018116801561022b575b602083108114610217578285529081156101fb57506001146101a6575b50819003601f01601f191681019067ffffffffffffffff8211818310176101925761018e82918260405282610638565b0390f35b634e487b7160e01b5f52604160045260245ffd5b905060045f527f8a35acfbc15ff81a39ae7d344fd709f28e8600b4aa8c65c6b64bfe7fe36bd19b5f905b8282106101e55750602091508201018261015e565b60018160209254838588010152019101906101d0565b90506020925060ff191682840152151560051b8201018261015e565b634e487b7160e01b5f52602260045260245ffd5b91607f1691610141565b346100e55760203660031901126100e5576001600160a01b03610256610662565b165f525f602052602060405f2054604051908152f35b346100e55760203660031901126100e55760043533156102f957335f525f60205260405f20548181106102e05790805f923384528360205203604083205580600254036002556040519081527fddf252ad1be2c89b69c2b068fc378daa952ba7f163c4a11628f55a4df523b3ef60203392a3005b63391434e360e21b5f523360045260245260445260645ffd5b634b637e8f60e11b5f525f60045260245ffd5b346100e55760403660031901126100e557610325610662565b6001600160a01b0316602435811561039b57600254908082018092116103875760207fddf252ad1be2c89b69c2b068fc378daa952ba7f163c4a11628f55a4df523b3ef915f9360025584845283825260408420818154019055604051908152a3005b634e487b7160e01b5f52601160045260245ffd5b63ec442f0560e01b5f525f60045260245ffd5b346100e5575f3660031901126100e557602060405160ff7f0000000000000000000000000000000000000000000000000000000000000000168152f35b346100e55760603660031901126100e557610404610662565b61040c610678565b6001600160a01b0382165f818152600160209081526040808320338452909152902054909260443592915f19811061044a575b5061010f935061068e565b8381106104af57841561049c5733156104895761010f945f52600160205260405f2060018060a01b0333165f526020528360405f20910390558461043f565b634a1406b160e11b5f525f60045260245ffd5b63e602df0560e01b5f525f60045260245ffd5b8390637dc7a0d960e11b5f523360045260245260445260645ffd5b346100e5575f3660031901126100e5576020600254604051908152f35b346100e55760403660031901126100e557610500610662565b60243590331561049c576001600160a01b031690811561048957335f52600160205260405f20825f526020528060405f20556040519081527f8c5be1e5ebec7d5bd14f71427d1e84f3dd0314c0f7b2291e5b200ac8c7c3b92560203392a3602060405160018152f35b346100e5575f3660031901126100e5575f6003548060011c9060018116801561062e575b602083108114610217578285529081156101fb57506001146105d95750819003601f01601f191681019067ffffffffffffffff8211818310176101925761018e82918260405282610638565b905060035f527fc2575a0e9e593c00f959f8c92f12db2869c3395a3b0502d05e2516446f71f85b5f905b8282106106185750602091508201018261015e565b6001816020925483858801015201910190610603565b91607f169161058d565b602060409281835280519182918282860152018484015e5f828201840152601f01601f1916010190565b600435906001600160a01b03821682036100e557565b602435906001600160a01b03821682036100e557565b6001600160a01b03169081156102f9576001600160a01b031691821561039b57815f525f60205260405f205481811061070c57817fddf252ad1be2c89b69c2b068fc378daa952ba7f163c4a11628f55a4df523b3ef92602092855f525f84520360405f2055845f525f825260405f20818154019055604051908152a3565b8263391434e360e21b5f5260045260245260445260645ffd000000000000000000000000000000000000000000000000000000000000006000000000000000000000000000000000000000000000000000000000000000a000000000000000000000000000000000000000000000000000000000000000120000000000000000000000000000000000000000000000000000000000000007546f6b656e2043000000000000000000000000000000000000000000000000000000000000000000000000000000000000000000000000000000000000000004544b4e4300000000000000000000000000000000000000000000000000000000",
        "nonce": "0x17",
        "chainId": "0x7a6a"
      },
      "additionalContracts": [],
      "isFixedGasLimit": false
    },
    {
      "hash": "0x219b17735da20273272db9988538ed7b2978ef8356297ac7b44059e0443f1272",
      "transactionType": "CALL",
      "contractName": "MockMintableToken",
      "contractAddress": "0x322813fd9a801c5507c9de605d63cea4f2ce6c44",
      "function": "mint(address,uint256)",
      "arguments": [
        "0xf39Fd6e51aad88F6F4ce6aB8827279cffFb92266",
        "1000000000000000000000000"
      ],
      "transaction": {
        "from": "0xf39fd6e51aad88f6f4ce6ab8827279cfffb92266",
        "to": "0x322813fd9a801c5507c9de605d63cea4f2ce6c44",
        "gas": "0x16f7a",
        "value": "0x0",
        "input": "0x40c10f19000000000000000000000000f39fd6e51aad88f6f4ce6ab8827279cfffb9226600000000000000000000000000000000000000000000d3c21bcecceda1000000",
        "nonce": "0x18",
        "chainId": "0x7a6a"
      },
      "additionalContracts": [],
      "isFixedGasLimit": false
    },
    {
      "hash": "0x8665c89d0e5d897d0d94faf7d38bf561ee371ffb400f6974d8fb40d83b99a2b9",
      "transactionType": "CALL",
      "contractName": "MockMintableToken",
      "contractAddress": "0x322813fd9a801c5507c9de605d63cea4f2ce6c44",
      "function": "mint(address,uint256)",
      "arguments": [
        "0x70997970C51812dc3A010C7d01b50e0d17dc79C8",
        "1000000000000000000000000"
      ],
      "transaction": {
        "from": "0xf39fd6e51aad88f6f4ce6ab8827279cfffb92266",
        "to": "0x322813fd9a801c5507c9de605d63cea4f2ce6c44",
        "gas": "0x12368",
        "value": "0x0",
        "input": "0x40c10f1900000000000000000000000070997970c51812dc3a010c7d01b50e0d17dc79c800000000000000000000000000000000000000000000d3c21bcecceda1000000",
        "nonce": "0x19",
        "chainId": "0x7a6a"
      },
      "additionalContracts": [],
      "isFixedGasLimit": false
    },
    {
      "hash": "0x0877b9508272062e623c2091770aff18a31093400602bfa12bcf01c63a7b2ca0",
      "transactionType": "CALL",
      "contractName": "MockMintableToken",
      "contractAddress": "0x322813fd9a801c5507c9de605d63cea4f2ce6c44",
      "function": "mint(address,uint256)",
      "arguments": [
        "0x3C44CdDdB6a900fa2b585dd299e03d12FA4293BC",
        "1000000000000000000000000"
      ],
      "transaction": {
        "from": "0xf39fd6e51aad88f6f4ce6ab8827279cfffb92266",
        "to": "0x322813fd9a801c5507c9de605d63cea4f2ce6c44",
        "gas": "0x11327",
        "value": "0x0",
        "input": "0x40c10f190000000000000000000000003c44cdddb6a900fa2b585dd299e03d12fa4293bc00000000000000000000000000000000000000000000d3c21bcecceda1000000",
        "nonce": "0x1a",
        "chainId": "0x7a6a"
      },
      "additionalContracts": [],
      "isFixedGasLimit": false
    }
  ],
  "receipts": [
    {
      "status": "0x1",
      "cumulativeGasUsed": "0x7c713",
      "logs": [],
      "logsBloom": "0x00000000000000000000000000000000000000000000000000000000000000000000000000000000000000000000000000000000000000000000000000000000000000000000000000000000000000000000000000000000000000000000000000000000000000000000000000000000000000000000000000000000000000000000000000000000000000000000000000000000000000000000000000000000000000000000000000000000000000000000000000000000000000000000000000000000000000000000000000000000000000000000000000000000000000000000000000000000000000000000000000000000000000000000000000000000",
      "type": "0x2",
      "transactionHash": "0xac4f7545ea3689e1ebe4d6ec055732aa8e399132a6dfe554a6e281a73b328437",
      "transactionIndex": "0x0",
      "blockHash": "0xda135695e5581d48fc14e6e22d7895af1b59805a853c7a56255b980514c6d44e",
      "blockNumber": "0x35",
      "gasUsed": "0x7c713",
      "effectiveGasPrice": "0x107267",
      "blobGasPrice": "0x1",
      "from": "0xf39fd6e51aad88f6f4ce6ab8827279cfffb92266",
      "to": null,
      "contractAddress": "0x0b306bf915c4d645ff596e518faf3f9669b97016"
    },
    {
      "status": "0x1",
      "cumulativeGasUsed": "0x8d120",
      "logs": [
        {
          "address": "0x0b306bf915c4d645ff596e518faf3f9669b97016",
          "topics": [
            "0xddf252ad1be2c89b69c2b068fc378daa952ba7f163c4a11628f55a4df523b3ef",
            "0x0000000000000000000000000000000000000000000000000000000000000000",
            "0x000000000000000000000000f39fd6e51aad88f6f4ce6ab8827279cfffb92266"
          ],
          "data": "0x00000000000000000000000000000000000000000000d3c21bcecceda1000000",
          "blockHash": "0xda135695e5581d48fc14e6e22d7895af1b59805a853c7a56255b980514c6d44e",
          "blockNumber": "0x35",
          "blockTimestamp": "0x698f267a",
          "transactionHash": "0xc2d51a8382ca5897a83c935fe91b533a66010b4b63801cf87081f1524b1c89a7",
          "transactionIndex": "0x1",
          "logIndex": "0x0",
          "removed": false
        }
      ],
      "logsBloom": "0x00000000000000001000000000000000000000000000000000000000000000000000000000000000000000000000000000000000000000000000000000000000000000000000000000000008000000000000000000000000000000000000000000000000020000000000000100000800000000000000000000000010000000000000000000000000000000000000000000000000008000000000000000000000000000000000000000000000000000000000000000000000000000000000000000000002000000200000000000000000000000002000000000000000000020000000000000000000000000000000010000000000000000000000000000000000",
      "type": "0x2",
      "transactionHash": "0xc2d51a8382ca5897a83c935fe91b533a66010b4b63801cf87081f1524b1c89a7",
      "transactionIndex": "0x1",
      "blockHash": "0xda135695e5581d48fc14e6e22d7895af1b59805a853c7a56255b980514c6d44e",
      "blockNumber": "0x35",
      "gasUsed": "0x10a0d",
      "effectiveGasPrice": "0x107267",
      "blobGasPrice": "0x1",
      "from": "0xf39fd6e51aad88f6f4ce6ab8827279cfffb92266",
      "to": "0x0b306bf915c4d645ff596e518faf3f9669b97016",
      "contractAddress": null
    },
    {
      "status": "0x1",
      "cumulativeGasUsed": "0x99861",
      "logs": [
        {
          "address": "0x0b306bf915c4d645ff596e518faf3f9669b97016",
          "topics": [
            "0xddf252ad1be2c89b69c2b068fc378daa952ba7f163c4a11628f55a4df523b3ef",
            "0x0000000000000000000000000000000000000000000000000000000000000000",
            "0x00000000000000000000000070997970c51812dc3a010c7d01b50e0d17dc79c8"
          ],
          "data": "0x00000000000000000000000000000000000000000000d3c21bcecceda1000000",
          "blockHash": "0xda135695e5581d48fc14e6e22d7895af1b59805a853c7a56255b980514c6d44e",
          "blockNumber": "0x35",
          "blockTimestamp": "0x698f267a",
          "transactionHash": "0xc4854859bb0cfd7a8f0c677a6129f0c9a15c1694cd7edbc3b592541e6c1cb6e7",
          "transactionIndex": "0x2",
          "logIndex": "0x1",
          "removed": false
        }
      ],
      "logsBloom": "0x00000000000000001002000000000000000000000000000000000000000000000000000000000000000000000000000000000000000000000000000000000000000000000000000000000008000000000000000000000000000000000000000000000800020000000000000000000800000000000000000000000010000000000000000000000000000000000000000000000000008000000000000000000000000000000000000000000000000000000000000000000000000000000000000000000002000000000000000000000000000000000000000000000000000020000000000000000000000000000000010001000000000000000000000000000000",
      "type": "0x2",
      "transactionHash": "0xc4854859bb0cfd7a8f0c677a6129f0c9a15c1694cd7edbc3b592541e6c1cb6e7",
      "transactionIndex": "0x2",
      "blockHash": "0xda135695e5581d48fc14e6e22d7895af1b59805a853c7a56255b980514c6d44e",
      "blockNumber": "0x35",
      "gasUsed": "0xc741",
      "effectiveGasPrice": "0x107267",
      "blobGasPrice": "0x1",
      "from": "0xf39fd6e51aad88f6f4ce6ab8827279cfffb92266",
      "to": "0x0b306bf915c4d645ff596e518faf3f9669b97016",
      "contractAddress": null
    },
    {
      "status": "0x1",
      "cumulativeGasUsed": "0xa5f96",
      "logs": [
        {
          "address": "0x0b306bf915c4d645ff596e518faf3f9669b97016",
          "topics": [
            "0xddf252ad1be2c89b69c2b068fc378daa952ba7f163c4a11628f55a4df523b3ef",
            "0x0000000000000000000000000000000000000000000000000000000000000000",
            "0x0000000000000000000000003c44cdddb6a900fa2b585dd299e03d12fa4293bc"
          ],
          "data": "0x00000000000000000000000000000000000000000000d3c21bcecceda1000000",
          "blockHash": "0xda135695e5581d48fc14e6e22d7895af1b59805a853c7a56255b980514c6d44e",
          "blockNumber": "0x35",
          "blockTimestamp": "0x698f267a",
          "transactionHash": "0x964dbbdfd1db441987988f4f922221101cc4dcd26074e794d347591a9d965e74",
          "transactionIndex": "0x3",
          "logIndex": "0x2",
          "removed": false
        }
      ],
      "logsBloom": "0x00000000000000001000000000000000000000000000000000000000000000000000000000000000000000000000000000000000000000000000000000100000000000000000000000000008000000000000000000000000000000000000000000000000020000000000000000000800000800000000000000000010000000000000000000000000000000000000000000000000008000000000000000000000000000000000200000000000000000000000000000000000000000000000000000000002000000000000000000000000000000000000000000000000000020000000000000000000000000000000010000000000000000000000000000000000",
      "type": "0x2",
      "transactionHash": "0x964dbbdfd1db441987988f4f922221101cc4dcd26074e794d347591a9d965e74",
      "transactionIndex": "0x3",
      "blockHash": "0xda135695e5581d48fc14e6e22d7895af1b59805a853c7a56255b980514c6d44e",
      "blockNumber": "0x35",
      "gasUsed": "0xc735",
      "effectiveGasPrice": "0x107267",
      "blobGasPrice": "0x1",
      "from": "0xf39fd6e51aad88f6f4ce6ab8827279cfffb92266",
      "to": "0x0b306bf915c4d645ff596e518faf3f9669b97016",
      "contractAddress": null
    },
    {
      "status": "0x1",
      "cumulativeGasUsed": "0x1226a9",
      "logs": [],
      "logsBloom": "0x00000000000000000000000000000000000000000000000000000000000000000000000000000000000000000000000000000000000000000000000000000000000000000000000000000000000000000000000000000000000000000000000000000000000000000000000000000000000000000000000000000000000000000000000000000000000000000000000000000000000000000000000000000000000000000000000000000000000000000000000000000000000000000000000000000000000000000000000000000000000000000000000000000000000000000000000000000000000000000000000000000000000000000000000000000000",
      "type": "0x2",
      "transactionHash": "0x4c06a737cc9e88a7affcbae9d08837a3af9da4823323cf8d5528e0cbd0a2ac65",
      "transactionIndex": "0x4",
      "blockHash": "0xda135695e5581d48fc14e6e22d7895af1b59805a853c7a56255b980514c6d44e",
      "blockNumber": "0x35",
      "gasUsed": "0x7c713",
      "effectiveGasPrice": "0x107267",
      "blobGasPrice": "0x1",
      "from": "0xf39fd6e51aad88f6f4ce6ab8827279cfffb92266",
      "to": null,
      "contractAddress": "0x3aa5ebb10dc797cac828524e59a333d0a371443c"
    },
    {
      "status": "0x1",
      "cumulativeGasUsed": "0x1330b6",
      "logs": [
        {
          "address": "0x3aa5ebb10dc797cac828524e59a333d0a371443c",
          "topics": [
            "0xddf252ad1be2c89b69c2b068fc378daa952ba7f163c4a11628f55a4df523b3ef",
            "0x0000000000000000000000000000000000000000000000000000000000000000",
            "0x000000000000000000000000f39fd6e51aad88f6f4ce6ab8827279cfffb92266"
          ],
          "data": "0x00000000000000000000000000000000000000000000d3c21bcecceda1000000",
          "blockHash": "0xda135695e5581d48fc14e6e22d7895af1b59805a853c7a56255b980514c6d44e",
          "blockNumber": "0x35",
          "blockTimestamp": "0x698f267a",
          "transactionHash": "0x695dee7bffbf88ab753ca36843e571168a9d02d3efd113de064d82ea6bcadafc",
          "transactionIndex": "0x5",
          "logIndex": "0x3",
          "removed": false
        }
      ],
      "logsBloom": "0x00000000000000000000000000000000000000000000000000000000000000000000000000000000000800000010000000000000000000000000000000000000000000000000000000000008000000000000000000000000000000000000000000000000020000000000000100000800000000000000000000000010000000000000000000000000000000000000000000000000000000000000000000000000000000000000000000000000000000000000000000000000000000000000000000000002000000200000000000000000000000002000000000000000000020000000000000000000000000004000000000000000000000000000000000000000",
      "type": "0x2",
      "transactionHash": "0x695dee7bffbf88ab753ca36843e571168a9d02d3efd113de064d82ea6bcadafc",
      "transactionIndex": "0x5",
      "blockHash": "0xda135695e5581d48fc14e6e22d7895af1b59805a853c7a56255b980514c6d44e",
      "blockNumber": "0x35",
      "gasUsed": "0x10a0d",
      "effectiveGasPrice": "0x107267",
      "blobGasPrice": "0x1",
      "from": "0xf39fd6e51aad88f6f4ce6ab8827279cfffb92266",
      "to": "0x3aa5ebb10dc797cac828524e59a333d0a371443c",
      "contractAddress": null
    },
    {
      "status": "0x1",
      "cumulativeGasUsed": "0x13f7f7",
      "logs": [
        {
          "address": "0x3aa5ebb10dc797cac828524e59a333d0a371443c",
          "topics": [
            "0xddf252ad1be2c89b69c2b068fc378daa952ba7f163c4a11628f55a4df523b3ef",
            "0x0000000000000000000000000000000000000000000000000000000000000000",
            "0x00000000000000000000000070997970c51812dc3a010c7d01b50e0d17dc79c8"
          ],
          "data": "0x00000000000000000000000000000000000000000000d3c21bcecceda1000000",
          "blockHash": "0xda135695e5581d48fc14e6e22d7895af1b59805a853c7a56255b980514c6d44e",
          "blockNumber": "0x35",
          "blockTimestamp": "0x698f267a",
          "transactionHash": "0x48143cebf4a89c7ca9cd3ff06ab6025a5007330502a3c11d02c8e22c9c2ed0e2",
          "transactionIndex": "0x6",
          "logIndex": "0x4",
          "removed": false
        }
      ],
      "logsBloom": "0x00000000000000000002000000000000000000000000000000000000000000000000000000000000000800000010000000000000000000000000000000000000000000000000000000000008000000000000000000000000000000000000000000000800020000000000000000000800000000000000000000000010000000000000000000000000000000000000000000000000000000000000000000000000000000000000000000000000000000000000000000000000000000000000000000000002000000000000000000000000000000000000000000000000000020000000000000000000000000004000000001000000000000000000000000000000",
      "type": "0x2",
      "transactionHash": "0x48143cebf4a89c7ca9cd3ff06ab6025a5007330502a3c11d02c8e22c9c2ed0e2",
      "transactionIndex": "0x6",
      "blockHash": "0xda135695e5581d48fc14e6e22d7895af1b59805a853c7a56255b980514c6d44e",
      "blockNumber": "0x35",
      "gasUsed": "0xc741",
      "effectiveGasPrice": "0x107267",
      "blobGasPrice": "0x1",
      "from": "0xf39fd6e51aad88f6f4ce6ab8827279cfffb92266",
      "to": "0x3aa5ebb10dc797cac828524e59a333d0a371443c",
      "contractAddress": null
    },
    {
      "status": "0x1",
      "cumulativeGasUsed": "0x14bf2c",
      "logs": [
        {
          "address": "0x3aa5ebb10dc797cac828524e59a333d0a371443c",
          "topics": [
            "0xddf252ad1be2c89b69c2b068fc378daa952ba7f163c4a11628f55a4df523b3ef",
            "0x0000000000000000000000000000000000000000000000000000000000000000",
            "0x0000000000000000000000003c44cdddb6a900fa2b585dd299e03d12fa4293bc"
          ],
          "data": "0x00000000000000000000000000000000000000000000d3c21bcecceda1000000",
          "blockHash": "0xda135695e5581d48fc14e6e22d7895af1b59805a853c7a56255b980514c6d44e",
          "blockNumber": "0x35",
          "blockTimestamp": "0x698f267a",
          "transactionHash": "0x10087a048ebe6e689c200bec780ec40fbe5b2fa4e08f5cf1ef3fb57d8a8a020f",
          "transactionIndex": "0x7",
          "logIndex": "0x5",
          "removed": false
        }
      ],
      "logsBloom": "0x00000000000000000000000000000000000000000000000000000000000000000000000000000000000800000010000000000000000000000000000000100000000000000000000000000008000000000000000000000000000000000000000000000000020000000000000000000800000800000000000000000010000000000000000000000000000000000000000000000000000000000000000000000000000000000000200000000000000000000000000000000000000000000000000000000002000000000000000000000000000000000000000000000000000020000000000000000000000000004000000000000000000000000000000000000000",
      "type": "0x2",
      "transactionHash": "0x10087a048ebe6e689c200bec780ec40fbe5b2fa4e08f5cf1ef3fb57d8a8a020f",
      "transactionIndex": "0x7",
      "blockHash": "0xda135695e5581d48fc14e6e22d7895af1b59805a853c7a56255b980514c6d44e",
      "blockNumber": "0x35",
      "gasUsed": "0xc735",
      "effectiveGasPrice": "0x107267",
      "blobGasPrice": "0x1",
      "from": "0xf39fd6e51aad88f6f4ce6ab8827279cfffb92266",
      "to": "0x3aa5ebb10dc797cac828524e59a333d0a371443c",
      "contractAddress": null
    },
    {
      "status": "0x1",
      "cumulativeGasUsed": "0x1c863f",
      "logs": [],
      "logsBloom": "0x00000000000000000000000000000000000000000000000000000000000000000000000000000000000000000000000000000000000000000000000000000000000000000000000000000000000000000000000000000000000000000000000000000000000000000000000000000000000000000000000000000000000000000000000000000000000000000000000000000000000000000000000000000000000000000000000000000000000000000000000000000000000000000000000000000000000000000000000000000000000000000000000000000000000000000000000000000000000000000000000000000000000000000000000000000000",
      "type": "0x2",
      "transactionHash": "0x145e02687c96749abff14b26973ac2b4b25c7f675ef84df0b0a23aece47f266e",
      "transactionIndex": "0x8",
      "blockHash": "0xda135695e5581d48fc14e6e22d7895af1b59805a853c7a56255b980514c6d44e",
      "blockNumber": "0x35",
      "gasUsed": "0x7c713",
      "effectiveGasPrice": "0x107267",
      "blobGasPrice": "0x1",
      "from": "0xf39fd6e51aad88f6f4ce6ab8827279cfffb92266",
      "to": null,
      "contractAddress": "0x322813fd9a801c5507c9de605d63cea4f2ce6c44"
    },
    {
      "status": "0x1",
      "cumulativeGasUsed": "0x1d904c",
      "logs": [
        {
          "address": "0x322813fd9a801c5507c9de605d63cea4f2ce6c44",
          "topics": [
            "0xddf252ad1be2c89b69c2b068fc378daa952ba7f163c4a11628f55a4df523b3ef",
            "0x0000000000000000000000000000000000000000000000000000000000000000",
            "0x000000000000000000000000f39fd6e51aad88f6f4ce6ab8827279cfffb92266"
          ],
          "data": "0x00000000000000000000000000000000000000000000d3c21bcecceda1000000",
          "blockHash": "0xda135695e5581d48fc14e6e22d7895af1b59805a853c7a56255b980514c6d44e",
          "blockNumber": "0x35",
          "blockTimestamp": "0x698f267a",
          "transactionHash": "0x219b17735da20273272db9988538ed7b2978ef8356297ac7b44059e0443f1272",
          "transactionIndex": "0x9",
          "logIndex": "0x6",
          "removed": false
        }
      ],
      "logsBloom": "0x00000000000000000000000000000000000000000000000000000000000000000000000000000000000000000000000000000000000000000000000000000000000000000000800000000008000000000000000000000000001000000000000000000000020000000000000100000800000000000000000000000010000000000000000000000000000000000000000000000000000000000000000000000000000000000000000000000000000000000000000000000000000000000000000000000002000000200000000000000000000000002000000000000000000020000000000010000000000000000000000000000000000000000000000000000000",
      "type": "0x2",
      "transactionHash": "0x219b17735da20273272db9988538ed7b2978ef8356297ac7b44059e0443f1272",
      "transactionIndex": "0x9",
      "blockHash": "0xda135695e5581d48fc14e6e22d7895af1b59805a853c7a56255b980514c6d44e",
      "blockNumber": "0x35",
      "gasUsed": "0x10a0d",
      "effectiveGasPrice": "0x107267",
      "blobGasPrice": "0x1",
      "from": "0xf39fd6e51aad88f6f4ce6ab8827279cfffb92266",
      "to": "0x322813fd9a801c5507c9de605d63cea4f2ce6c44",
      "contractAddress": null
    },
    {
      "status": "0x1",
      "cumulativeGasUsed": "0x1e578d",
      "logs": [
        {
          "address": "0x322813fd9a801c5507c9de605d63cea4f2ce6c44",
          "topics": [
            "0xddf252ad1be2c89b69c2b068fc378daa952ba7f163c4a11628f55a4df523b3ef",
            "0x0000000000000000000000000000000000000000000000000000000000000000",
            "0x00000000000000000000000070997970c51812dc3a010c7d01b50e0d17dc79c8"
          ],
          "data": "0x00000000000000000000000000000000000000000000d3c21bcecceda1000000",
          "blockHash": "0xda135695e5581d48fc14e6e22d7895af1b59805a853c7a56255b980514c6d44e",
          "blockNumber": "0x35",
          "blockTimestamp": "0x698f267a",
          "transactionHash": "0x8665c89d0e5d897d0d94faf7d38bf561ee371ffb400f6974d8fb40d83b99a2b9",
          "transactionIndex": "0xa",
          "logIndex": "0x7",
          "removed": false
        }
      ],
      "logsBloom": "0x00000000000000000002000000000000000000000000000000000000000000000000000000000000000000000000000000000000000000000000000000000000000000000000800000000008000000000000000000000000001000000000000000000800020000000000000000000800000000000000000000000010000000000000000000000000000000000000000000000000000000000000000000000000000000000000000000000000000000000000000000000000000000000000000000000002000000000000000000000000000000000000000000000000000020000000000010000000000000000000000001000000000000000000000000000000",
      "type": "0x2",
      "transactionHash": "0x8665c89d0e5d897d0d94faf7d38bf561ee371ffb400f6974d8fb40d83b99a2b9",
      "transactionIndex": "0xa",
      "blockHash": "0xda135695e5581d48fc14e6e22d7895af1b59805a853c7a56255b980514c6d44e",
      "blockNumber": "0x35",
      "gasUsed": "0xc741",
      "effectiveGasPrice": "0x107267",
      "blobGasPrice": "0x1",
      "from": "0xf39fd6e51aad88f6f4ce6ab8827279cfffb92266",
      "to": "0x322813fd9a801c5507c9de605d63cea4f2ce6c44",
      "contractAddress": null
    },
    {
      "status": "0x1",
      "cumulativeGasUsed": "0x1f1ec2",
      "logs": [
        {
          "address": "0x322813fd9a801c5507c9de605d63cea4f2ce6c44",
          "topics": [
            "0xddf252ad1be2c89b69c2b068fc378daa952ba7f163c4a11628f55a4df523b3ef",
            "0x0000000000000000000000000000000000000000000000000000000000000000",
            "0x0000000000000000000000003c44cdddb6a900fa2b585dd299e03d12fa4293bc"
          ],
          "data": "0x00000000000000000000000000000000000000000000d3c21bcecceda1000000",
          "blockHash": "0xda135695e5581d48fc14e6e22d7895af1b59805a853c7a56255b980514c6d44e",
          "blockNumber": "0x35",
          "blockTimestamp": "0x698f267a",
          "transactionHash": "0x0877b9508272062e623c2091770aff18a31093400602bfa12bcf01c63a7b2ca0",
          "transactionIndex": "0xb",
          "logIndex": "0x8",
          "removed": false
        }
      ],
      "logsBloom": "0x00000000000000000000000000000000000000000000000000000000000000000000000000000000000000000000000000000000000000000000000000100000000000000000800000000008000000000000000000000000001000000000000000000000020000000000000000000800000800000000000000000010000000000000000000000000000000000000000000000000000000000000000000000000000000000000200000000000000000000000000000000000000000000000000000000002000000000000000000000000000000000000000000000000000020000000000010000000000000000000000000000000000000000000000000000000",
      "type": "0x2",
      "transactionHash": "0x0877b9508272062e623c2091770aff18a31093400602bfa12bcf01c63a7b2ca0",
      "transactionIndex": "0xb",
      "blockHash": "0xda135695e5581d48fc14e6e22d7895af1b59805a853c7a56255b980514c6d44e",
      "blockNumber": "0x35",
      "gasUsed": "0xc735",
      "effectiveGasPrice": "0x107267",
      "blobGasPrice": "0x1",
      "from": "0xf39fd6e51aad88f6f4ce6ab8827279cfffb92266",
      "to": "0x322813fd9a801c5507c9de605d63cea4f2ce6c44",
      "contractAddress": null
    }
  ],
  "libraries": [],
  "pending": [],
  "returns": {},
  "timestamp": 1770989179000,
  "chain": 31338,
  "commit": "2ace11a"
}