{
  "transactions": [
    {
      "hash": "0xdb0177fe273844a1206dd51d7d55f504c03b210202032d3e096ab4de14eb5161",
      "transactionType": "CREATE",
      "contractName": "MockMintableToken",
      "contractAddress": "0x959922be3caee4b8cd9a407cc3ac1c251c2007b1",
      "function": null,
      "arguments": [
        "Token A",
        "TKNA",
        "18"
      ],
      "transaction": {
        "from": "0xf39fd6e51aad88f6f4ce6ab8827279cfffb92266",
        "gas": "0xa1c65",
        "value": "0x0",
        "input": "0x60a06040523461033057610ad08038038061001981610334565b9283398101906060818303126103305780516001600160401b0381116103305782610045918301610359565b60208201519092906001600160401b03811161033057604091610069918401610359565b91015160ff811681036103305782516001600160401b03811161024157600354600181811c91168015610326575b602082101461022357601f81116102c3575b506020601f821160011461026057819293945f92610255575b50508160011b915f199060031b1c1916176003555b81516001600160401b03811161024157600454600181811c91168015610237575b602082101461022357601f81116101c0575b50602092601f821160011461015f57928192935f92610154575b50508160011b915f199060031b1c1916176004555b60805260405161072590816103ab8239608051816103c70152f35b015190505f80610124565b601f1982169360045f52805f20915f5b8681106101a85750836001959610610190575b505050811b01600455610139565b01515f1960f88460031b161c191690555f8080610182565b9192602060018192868501518155019401920161016f565b60045f527f8a35acfbc15ff81a39ae7d344fd709f28e8600b4aa8c65c6b64bfe7fe36bd19b601f830160051c81019160208410610219575b601f0160051c01905b81811061020e575061010a565b5f8155600101610201565b90915081906101f8565b634e487b7160e01b5f52602260045260245ffd5b90607f16906100f8565b634e487b7160e01b5f52604160045260245ffd5b015190505f806100c2565b601f1982169060035f52805f20915f5b8181106102ab57509583600195969710610293575b505050811b016003556100d7565b01515f1960f88460031b161c191690555f8080610285565b9192602060018192868b015181550194019201610270565b60035f527fc2575a0e9e593c00f959f8c92f12db2869c3395a3b0502d05e2516446f71f85b601f830160051c8101916020841061031c575b601f0160051c01905b81811061031157506100a9565b5f8155600101610304565b90915081906102fb565b90607f1690610097565b5f80fd5b6040519190601f01601f191682016001600160401b0381118382101761024157604052565b81601f82011215610330578051906001600160401b03821161024157610388601f8301601f1916602001610334565b928284526020838301011161033057815f9260208093018386015e830101529056fe6080806040526004361015610012575f80fd5b5f3560e01c90816306fdde031461056957508063095ea7b3146104e757806318160ddd146104ca57806323b872dd146103eb578063313ce567146103ae57806340c10f191461030c57806342966c681461026c57806370a082311461023557806395d89b411461011a578063a9059cbb146100e95763dd62ed3e14610095575f80fd5b346100e55760403660031901126100e5576100ae610662565b6100b6610678565b6001600160a01b039182165f908152600160209081526040808320949093168252928352819020549051908152f35b5f80fd5b346100e55760403660031901126100e55761010f610105610662565b602435903361068e565b602060405160018152f35b346100e5575f3660031901126100e5576040515f6004548060011c9060018116801561022b575b602083108114610217578285529081156101fb57506001146101a6575b50819003601f01601f191681019067ffffffffffffffff8211818310176101925761018e82918260405282610638565b0390f35b634e487b7160e01b5f52604160045260245ffd5b905060045f527f8a35acfbc15ff81a39ae7d344fd709f28e8600b4aa8c65c6b64bfe7fe36bd19b5f905b8282106101e55750602091508201018261015e565b60018160209254838588010152019101906101d0565b90506020925060ff191682840152151560051b8201018261015e565b634e487b7160e01b5f52602260045260245ffd5b91607f1691610141565b346100e55760203660031901126100e5576001600160a01b03610256610662565b165f525f602052602060405f2054604051908152f35b346100e55760203660031901126100e55760043533156102f957335f525f60205260405f20548181106102e05790805f923384528360205203604083205580600254036002556040519081527fddf252ad1be2c89b69c2b068fc378daa952ba7f163c4a11628f55a4df523b3ef60203392a3005b63391434e360e21b5f523360045260245260445260645ffd5b634b637e8f60e11b5f525f60045260245ffd5b346100e55760403660031901126100e557610325610662565b6001600160a01b0316602435811561039b57600254908082018092116103875760207fddf252ad1be2c89b69c2b068fc378daa952ba7f163c4a11628f55a4df523b3ef915f9360025584845283825260408420818154019055604051908152a3005b634e487b7160e01b5f52601160045260245ffd5b63ec442f0560e01b5f525f60045260245ffd5b346100e5575f3660031901126100e557602060405160ff7f0000000000000000000000000000000000000000000000000000000000000000168152f35b346100e55760603660031901126100e557610404610662565b61040c610678565b6001600160a01b0382165f818152600160209081526040808320338452909152902054909260443592915f19811061044a575b5061010f935061068e565b8381106104af57841561049c5733156104895761010f945f52600160205260405f2060018060a01b0333165f526020528360405f20910390558461043f565b634a1406b160e11b5f525f60045260245ffd5b63e602df0560e01b5f525f60045260245ffd5b8390637dc7a0d960e11b5f523360045260245260445260645ffd5b346100e5575f3660031901126100e5576020600254604051908152f35b346100e55760403660031901126100e557610500610662565b60243590331561049c576001600160a01b031690811561048957335f52600160205260405f20825f526020528060405f20556040519081527f8c5be1e5ebec7d5bd14f71427d1e84f3dd0314c0f7b2291e5b200ac8c7c3b92560203392a3602060405160018152f35b346100e5575f3660031901126100e5575f6003548060011c9060018116801561062e575b602083108114610217578285529081156101fb57506001146105d95750819003601f01601f191681019067ffffffffffffffff8211818310176101925761018e82918260405282610638565b905060035f527fc2575a0e9e593c00f959f8c92f12db2869c3395a3b0502d05e2516446f71f85b5f905b8282106106185750602091508201018261015e565b6001816020925483858801015201910190610603565b91607f169161058d565b602060409281835280519182918282860152018484015e5f828201840152601f01601f1916010190565b600435906001600160a01b03821682036100e557565b602435906001600160a01b03821682036100e557565b6001600160a01b03169081156102f9576001600160a01b031691821561039b57815f525f60205260405f205481811061070c57817fddf252ad1be2c89b69c2b068fc378daa952ba7f163c4a11628f55a4df523b3ef92602092855f525f84520360405f2055845f525f825260405f20818154019055604051908152a3565b8263391434e360e21b5f5260045260245260445260645ffd000000000000000000000000000000000000000000000000000000000000006000000000000000000000000000000000000000000000000000000000000000a000000000000000000000000000000000000000000000000000000000000000120000000000000000000000000000000000000000000000000000000000000007546f6b656e2041000000000000000000000000000000000000000000000000000000000000000000000000000000000000000000000000000000000000000004544b4e4100000000000000000000000000000000000000000000000000000000",
        "nonce": "0x10",
        "chainId": "0x7a6a"
      },
      "additionalContracts": [],
      "isFixedGasLimit": false
    },
    {
      "hash": "0x690acd6c3ce15bc8e52a0587638886d28610d0d16a68d2b4f6b70e9dbce5de42",
      "transactionType": "CALL",
      "contractName": "MockMintableToken",
      "contractAddress": "0x959922be3caee4b8cd9a407cc3ac1c251c2007b1",
      "function": "mint(address,uint256)",
      "arguments": [
        "0xf39Fd6e51aad88F6F4ce6aB8827279cffFb92266",
        "1000000000000000000000000"
      ],
      "transaction": {
        "from": "0xf39fd6e51aad88f6f4ce6ab8827279cfffb92266",
        "to": "0x959922be3caee4b8cd9a407cc3ac1c251c2007b1",
        "gas": "0x16f7a",
        "value": "0x0",
        "input": "0x40c10f19000000000000000000000000f39fd6e51aad88f6f4ce6ab8827279cfffb9226600000000000000000000000000000000000000000000d3c21bcecceda1000000",
        "nonce": "0x11",
        "chainId": "0x7a6a"
      },
      "additionalContracts": [],
      "isFixedGasLimit": false
    },
    {
      "hash": "0x439b408e60aeec48d3eb8caf6ac46d1a1ae503a1cb38c325e1ebfb957762d7b5",
      "transactionType": "CALL",
      "contractName": "MockMintableToken",
      "contractAddress": "0x959922be3caee4b8cd9a407cc3ac1c251c2007b1",
      "function": "mint(address,uint256)",
      "arguments": [
        "0x70997970C51812dc3A010C7d01b50e0d17dc79C8",
        "1000000000000000000000000"
      ],
      "transaction": {
        "from": "0xf39fd6e51aad88f6f4ce6ab8827279cfffb92266",
        "to": "0x959922be3caee4b8cd9a407cc3ac1c251c2007b1",
        "gas": "0x12368",
        "value": "0x0",
        "input": "0x40c10f1900000000000000000000000070997970c51812dc3a010c7d01b50e0d17dc79c800000000000000000000000000000000000000000000d3c21bcecceda1000000",
        "nonce": "0x12",
        "chainId": "0x7a6a"
      },
      "additionalContracts": [],
      "isFixedGasLimit": false
    },
    {
      "hash": "0xd16cdaf319a1714ca6773868b3f7176f108bf84a7c60402cac75a16f72050493",
      "transactionType": "CALL",
      "contractName": "MockMintableToken",
      "contractAddress": "0x959922be3caee4b8cd9a407cc3ac1c251c2007b1",
      "function": "mint(address,uint256)",
      "arguments": [
        "0x3C44CdDdB6a900fa2b585dd299e03d12FA4293BC",
        "1000000000000000000000000"
      ],
      "transaction": {
        "from": "0xf39fd6e51aad88f6f4ce6ab8827279cfffb92266",
        "to": "0x959922be3caee4b8cd9a407cc3ac1c251c2007b1",
        "gas": "0x11327",
        "value": "0x0",
        "input": "0x40c10f190000000000000000000000003c44cdddb6a900fa2b585dd299e03d12fa4293bc00000000000000000000000000000000000000000000d3c21bcecceda1000000",
        "nonce": "0x13",
        "chainId": "0x7a6a"
      },
      "additionalContracts": [],
      "isFixedGasLimit": false
    },
    {
      "hash": "0xb126d5517ceaa95cb1c19b0515b673b9ad4b4dfe9ca8f40bfd3b9417bbb5cb87",
      "transactionType": "CREATE",
      "contractName": "MockMintableToken",
      "contractAddress": "0xc6e7df5e7b4f2a278906862b61205850344d4e7d",
      "function": null,
      "arguments": [
        "Token B",
        "TKNB",
        "18"
      ],
      "transaction": {
        "from": "0xf39fd6e51aad88f6f4ce6ab8827279cfffb92266",
        "gas": "0xa1c65",
        "value": "0x0",
        "input": "0x60a06040523461033057610ad08038038061001981610334565b9283398101906060818303126103305780516001600160401b0381116103305782610045918301610359565b60208201519092906001600160401b03811161033057604091610069918401610359565b91015160ff811681036103305782516001600160401b03811161024157600354600181811c91168015610326575b602082101461022357601f81116102c3575b506020601f821160011461026057819293945f92610255575b50508160011b915f199060031b1c1916176003555b81516001600160401b03811161024157600454600181811c91168015610237575b602082101461022357601f81116101c0575b50602092601f821160011461015f57928192935f92610154575b50508160011b915f199060031b1c1916176004555b60805260405161072590816103ab8239608051816103c70152f35b015190505f80610124565b601f1982169360045f52805f20915f5b8681106101a85750836001959610610190575b505050811b01600455610139565b01515f1960f88460031b161c191690555f8080610182565b9192602060018192868501518155019401920161016f565b60045f527f8a35acfbc15ff81a39ae7d344fd709f28e8600b4aa8c65c6b64bfe7fe36bd19b601f830160051c81019160208410610219575b601f0160051c01905b81811061020e575061010a565b5f8155600101610201565b90915081906101f8565b634e487b7160e01b5f52602260045260245ffd5b90607f16906100f8565b634e487b7160e01b5f52604160045260245ffd5b015190505f806100c2565b601f1982169060035f52805f20915f5b8181106102ab57509583600195969710610293575b505050811b016003556100d7565b01515f1960f88460031b161c191690555f8080610285565b9192602060018192868b015181550194019201610270565b60035f527fc2575a0e9e593c00f959f8c92f12db2869c3395a3b0502d05e2516446f71f85b601f830160051c8101916020841061031c575b601f0160051c01905b81811061031157506100a9565b5f8155600101610304565b90915081906102fb565b90607f1690610097565b5f80fd5b6040519190601f01601f191682016001600160401b0381118382101761024157604052565b81601f82011215610330578051906001600160401b03821161024157610388601f8301601f1916602001610334565b928284526020838301011161033057815f9260208093018386015e830101529056fe6080806040526004361015610012575f80fd5b5f3560e01c90816306fdde031461056957508063095ea7b3146104e757806318160ddd146104ca57806323b872dd146103eb578063313ce567146103ae57806340c10f191461030c57806342966c681461026c57806370a082311461023557806395d89b411461011a578063a9059cbb146100e95763dd62ed3e14610095575f80fd5b346100e55760403660031901126100e5576100ae610662565b6100b6610678565b6001600160a01b039182165f908152600160209081526040808320949093168252928352819020549051908152f35b5f80fd5b346100e55760403660031901126100e55761010f610105610662565b602435903361068e565b602060405160018152f35b346100e5575f3660031901126100e5576040515f6004548060011c9060018116801561022b575b602083108114610217578285529081156101fb57506001146101a6575b50819003601f01601f191681019067ffffffffffffffff8211818310176101925761018e82918260405282610638565b0390f35b634e487b7160e01b5f52604160045260245ffd5b905060045f527f8a35acfbc15ff81a39ae7d344fd709f28e8600b4aa8c65c6b64bfe7fe36bd19b5f905b8282106101e55750602091508201018261015e565b60018160209254838588010152019101906101d0565b90506020925060ff191682840152151560051b8201018261015e565b634e487b7160e01b5f52602260045260245ffd5b91607f1691610141565b346100e55760203660031901126100e5576001600160a01b03610256610662565b165f525f602052602060405f2054604051908152f35b346100e55760203660031901126100e55760043533156102f957335f525f60205260405f20548181106102e05790805f923384528360205203604083205580600254036002556040519081527fddf252ad1be2c89b69c2b068fc378daa952ba7f163c4a11628f55a4df523b3ef60203392a3005b63391434e360e21b5f523360045260245260445260645ffd5b634b637e8f60e11b5f525f60045260245ffd5b346100e55760403660031901126100e557610325610662565b6001600160a01b0316602435811561039b57600254908082018092116103875760207fddf252ad1be2c89b69c2b068fc378daa952ba7f163c4a11628f55a4df523b3ef915f9360025584845283825260408420818154019055604051908152a3005b634e487b7160e01b5f52601160045260245ffd5b63ec442f0560e01b5f525f60045260245ffd5b346100e5575f3660031901126100e557602060405160ff7f0000000000000000000000000000000000000000000000000000000000000000168152f35b346100e55760603660031901126100e557610404610662565b61040c610678565b6001600160a01b0382165f818152600160209081526040808320338452909152902054909260443592915f19811061044a575b5061010f935061068e565b8381106104af57841561049c5733156104895761010f945f52600160205260405f2060018060a01b0333165f526020528360405f20910390558461043f565b634a1406b160e11b5f525f60045260245ffd5b63e602df0560e01b5f525f60045260245ffd5b8390637dc7a0d960e11b5f523360045260245260445260645ffd5b346100e5575f3660031901126100e5576020600254604051908152f35b346100e55760403660031901126100e557610500610662565b60243590331561049c576001600160a01b031690811561048957335f52600160205260405f20825f526020528060405f20556040519081527f8c5be1e5ebec7d5bd14f71427d1e84f3dd0314c0f7b2291e5b200ac8c7c3b92560203392a3602060405160018152f35b346100e5575f3660031901126100e5575f6003548060011c9060018116801561062e575b602083108114610217578285529081156101fb57506001146105d95750819003601f01601f191681019067ffffffffffffffff8211818310176101925761018e82918260405282610638565b905060035f527fc2575a0e9e593c00f959f8c92f12db2869c3395a3b0502d05e2516446f71f85b5f905b8282106106185750602091508201018261015e565b6001816020925483858801015201910190610603565b91607f169161058d565b602060409281835280519182918282860152018484015e5f828201840152601f01601f1916010190565b600435906001600160a01b03821682036100e557565b602435906001600160a01b03821682036100e557565b6001600160a01b03169081156102f9576001600160a01b031691821561039b57815f525f60205260405f205481811061070c57817fddf252ad1be2c89b69c2b068fc378daa952ba7f163c4a11628f55a4df523b3ef92602092855f525f84520360405f2055845f525f825260405f20818154019055604051908152a3565b8263391434e360e21b5f5260045260245260445260645ffd000000000000000000000000000000000000000000000000000000000000006000000000000000000000000000000000000000000000000000000000000000a000000000000000000000000000000000000000000000000000000000000000120000000000000000000000000000000000000000000000000000000000000007546f6b656e2042000000000000000000000000000000000000000000000000000000000000000000000000000000000000000000000000000000000000000004544b4e4200000000000000000000000000000000000000000000000000000000",
        "nonce": "0x14",
        "chainId": "0x7a6a"
      },
      "additionalContracts": [],
      "isFixedGasLimit": false
    },
    {
      "hash": "0xd9a6ac1b9ab01a376cd8f552a5ee0da02aafb590d7cf35bb8773b5dbfcea1819",
      "transactionType": "CALL",
      "contractName": "MockMintableToken",
      "contractAddress": "0xc6e7df5e7b4f2a278906862b61205850344d4e7d",
      "function": "mint(address,uint256)",
      "arguments": [
        "0xf39Fd6e51aad88F6F4ce6aB8827279cffFb92266",
        "1000000000000000000000000"
      ],
      "transaction": {
        "from": "0xf39fd6e51aad88f6f4ce6ab8827279cfffb92266",
        "to": "0xc6e7df5e7b4f2a278906862b61205850344d4e7d",
        "gas": "0x16f7a",
        "value": "0x0",
        "input": "0x40c10f19000000000000000000000000f39fd6e51aad88f6f4ce6ab8827279cfffb9226600000000000000000000000000000000000000000000d3c21bcecceda1000000",
        "nonce": "0x15",
        "chainId": "0x7a6a"
      },
      "additionalContracts": [],
      "isFixedGasLimit": false
    },
    {
      "hash": "0x0cd696d86c93973fc8497fdf806489b6b7fcbdb5142c112ecf288717a854dc4b",
      "transactionType": "CALL",
      "contractName": "MockMintableToken",
      "contractAddress": "0xc6e7df5e7b4f2a278906862b61205850344d4e7d",
      "function": "mint(address,uint256)",
      "arguments": [
        "0x70997970C51812dc3A010C7d01b50e0d17dc79C8",
        "1000000000000000000000000"
      ],
      "transaction": {
        "from": "0xf39fd6e51aad88f6f4ce6ab8827279cfffb92266",
        "to": "0xc6e7df5e7b4f2a278906862b61205850344d4e7d",
        "gas": "0x12368",
        "value": "0x0",
        "input": "0x40c10f1900000000000000000000000070997970c51812dc3a010c7d01b50e0d17dc79c800000000000000000000000000000000000000000000d3c21bcecceda1000000",
        "nonce": "0x16",
        "chainId": "0x7a6a"
      },
      "additionalContracts": [],
      "isFixedGasLimit": false
    },
    {
      "hash": "0xf4cc3e72a40dab440819d914db02a6f71472c5421ac390834800ae72fbdc6d03",
      "transactionType": "CALL",
      "contractName": "MockMintableToken",
      "contractAddress": "0xc6e7df5e7b4f2a278906862b61205850344d4e7d",
      "function": "mint(address,uint256)",
      "arguments": [
        "0x3C44CdDdB6a900fa2b585dd299e03d12FA4293BC",
        "1000000000000000000000000"
      ],
      "transaction": {
        "from": "0xf39fd6e51aad88f6f4ce6ab8827279cfffb92266",
        "to": "0xc6e7df5e7b4f2a278906862b61205850344d4e7d",
        "gas": "0x11327",
        "value": "0x0",
        "input": "0x40c10f190000000000000000000000003c44cdddb6a900fa2b585dd299e03d12fa4293bc00000000000000000000000000000000000000000000d3c21bcecceda1000000",
        "nonce": "0x17",
        "chainId": "0x7a6a"
      },
      "additionalContracts": [],
      "isFixedGasLimit": false
    },
    {
      "hash": "0xb919d70396861d4341d388e00afbe0369dcadef2a3f4492057ab937b1dc320b2",
      "transactionType": "CREATE",
      "contractName": "MockMintableToken",
      "contractAddress": "0xa85233c63b9ee964add6f2cffe00fd84eb32338f",
      "function": null,
      "arguments": [
        "Token C",
        "TKNC",
        "18"
      ],
      "transaction": {
        "from": "0xf39fd6e51aad88f6f4ce6ab8827279cfffb92266",
        "gas": "0xa1c65",
        "value": "0x0",
        "input": "0x60a06040523461033057610ad08038038061001981610334565b9283398101906060818303126103305780516001600160401b0381116103305782610045918301610359565b60208201519092906001600160401b03811161033057604091610069918401610359565b91015160ff811681036103305782516001600160401b03811161024157600354600181811c91168015610326575b602082101461022357601f81116102c3575b506020601f821160011461026057819293945f92610255575b50508160011b915f199060031b1c1916176003555b81516001600160401b03811161024157600454600181811c91168015610237575b602082101461022357601f81116101c0575b50602092601f821160011461015f57928192935f92610154575b50508160011b915f199060031b1c1916176004555b60805260405161072590816103ab8239608051816103c70152f35b015190505f80610124565b601f1982169360045f52805f20915f5b8681106101a85750836001959610610190575b505050811b01600455610139565b01515f1960f88460031b161c191690555f8080610182565b9192602060018192868501518155019401920161016f565b60045f527f8a35acfbc15ff81a39ae7d344fd709f28e8600b4aa8c65c6b64bfe7fe36bd19b601f830160051c81019160208410610219575b601f0160051c01905b81811061020e575061010a565b5f8155600101610201565b90915081906101f8565b634e487b7160e01b5f52602260045260245ffd5b90607f16906100f8565b634e487b7160e01b5f52604160045260245ffd5b015190505f806100c2565b601f1982169060035f52805f20915f5b8181106102ab57509583600195969710610293575b505050811b016003556100d7565b01515f1960f88460031b161c191690555f8080610285565b9192602060018192868b015181550194019201610270565b60035f527fc2575a0e9e593c00f959f8c92f12db2869c3395a3b0502d05e2516446f71f85b601f830160051c8101916020841061031c575b601f0160051c01905b81811061031157506100a9565b5f8155600101610304565b90915081906102fb565b90607f1690610097565b5f80fd5b6040519190601f01601f191682016001600160401b0381118382101761024157604052565b81601f82011215610330578051906001600160401b03821161024157610388601f8301601f1916602001610334565b928284526020838301011161033057815f9260208093018386015e830101529056fe6080806040526004361015610012575f80fd5b5f3560e01c90816306fdde031461056957508063095ea7b3146104e757806318160ddd146104ca57806323b872dd146103eb578063313ce567146103ae57806340c10f191461030c57806342966c681461026c57806370a082311461023557806395d89b411461011a578063a9059cbb146100e95763dd62ed3e14610095575f80fd5b346100e55760403660031901126100e5576100ae610662565b6100b6610678565b6001600160a01b039182165f908152600160209081526040808320949093168252928352819020549051908152f35b5f80fd5b346100e55760403660031901126100e55761010f610105610662565b602435903361068e565b602060405160018152f35b346100e5575f3660031901126100e5576040515f6004548060011c9060018116801561022b575b602083108114610217578285529081156101fb57506001146101a6575b50819003601f01601f191681019067ffffffffffffffff8211818310176101925761018e82918260405282610638565b0390f35b634e487b7160e01b5f52604160045260245ffd5b905060045f527f8a35acfbc15ff81a39ae7d344fd709f28e8600b4aa8c65c6b64bfe7fe36bd19b5f905b8282106101e55750602091508201018261015e565b60018160209254838588010152019101906101d0565b90506020925060ff191682840152151560051b8201018261015e565b634e487b7160e01b5f52602260045260245ffd5b91607f1691610141565b346100e55760203660031901126100e5576001600160a01b03610256610662565b165f525f602052602060405f2054604051908152f35b346100e55760203660031901126100e55760043533156102f957335f525f60205260405f20548181106102e05790805f923384528360205203604083205580600254036002556040519081527fddf252ad1be2c89b69c2b068fc378daa952ba7f163c4a11628f55a4df523b3ef60203392a3005b63391434e360e21b5f523360045260245260445260645ffd5b634b637e8f60e11b5f525f60045260245ffd5b346100e55760403660031901126100e557610325610662565b6001600160a01b0316602435811561039b57600254908082018092116103875760207fddf252ad1be2c89b69c2b068fc378daa952ba7f163c4a11628f55a4df523b3ef915f9360025584845283825260408420818154019055604051908152a3005b634e487b7160e01b5f52601160045260245ffd5b63ec442f0560e01b5f525f60045260245ffd5b346100e5575f3660031901126100e557602060405160ff7f0000000000000000000000000000000000000000000000000000000000000000168152f35b346100e55760603660031901126100e557610404610662565b61040c610678565b6001600160a01b0382165f818152600160209081526040808320338452909152902054909260443592915f19811061044a575b5061010f935061068e565b8381106104af57841561049c5733156104895761010f945f52600160205260405f2060018060a01b0333165f526020528360405f20910390558461043f565b634a1406b160e11b5f525f60045260245ffd5b63e602df0560e01b5f525f60045260245ffd5b8390637dc7a0d960e11b5f523360045260245260445260645ffd5b346100e5575f3660031901126100e5576020600254604051908152f35b346100e55760403660031901126100e557610500610662565b60243590331561049c576001600160a01b031690811561048957335f52600160205260405f20825f526020528060405f20556040519081527f8c5be1e5ebec7d5bd14f71427d1e84f3dd0314c0f7b2291e5b200ac8c7c3b92560203392a3602060405160018152f35b346100e5575f3660031901126100e5575f6003548060011c9060018116801561062e575b602083108114610217578285529081156101fb57506001146105d95750819003601f01601f191681019067ffffffffffffffff8211818310176101925761018e82918260405282610638565b905060035f527fc2575a0e9e593c00f959f8c92f12db2869c3395a3b0502d05e2516446f71f85b5f905b8282106106185750602091508201018261015e565b6001816020925483858801015201910190610603565b91607f169161058d565b602060409281835280519182918282860152018484015e5f828201840152601f01601f1916010190565b600435906001600160a01b03821682036100e557565b602435906001600160a01b03821682036100e557565b6001600160a01b03169081156102f9576001600160a01b031691821561039b57815f525f60205260405f205481811061070c57817fddf252ad1be2c89b69c2b068fc378daa952ba7f163c4a11628f55a4df523b3ef92602092855f525f84520360405f2055845f525f825260405f20818154019055604051908152a3565b8263391434e360e21b5f5260045260245260445260645ffd000000000000000000000000000000000000000000000000000000000000006000000000000000000000000000000000000000000000000000000000000000a000000000000000000000000000000000000000000000000000000000000000120000000000000000000000000000000000000000000000000000000000000007546f6b656e2043000000000000000000000000000000000000000000000000000000000000000000000000000000000000000000000000000000000000000004544b4e4300000000000000000000000000000000000000000000000000000000",
        "nonce": "0x18",
        "chainId": "0x7a6a"
      },
      "additionalContracts": [],
      "isFixedGasLimit": false
    },
    {
      "hash": "0x29c37029b48296946adf0dee7cb0301e2a590db7910bec12495ab3671f8cfd3d",
      "transactionType": "CALL",
      "contractName": "MockMintableToken",
      "contractAddress": "0xa85233c63b9ee964add6f2cffe00fd84eb32338f",
      "function": "mint(address,uint256)",
      "arguments": [
        "0xf39Fd6e51aad88F6F4ce6aB8827279cffFb92266",
        "1000000000000000000000000"
      ],
      "transaction": {
        "from": "0xf39fd6e51aad88f6f4ce6ab8827279cfffb92266",
        "to": "0xa85233c63b9ee964add6f2cffe00fd84eb32338f",
        "gas": "0x16f7a",
        "value": "0x0",
        "input": "0x40c10f19000000000000000000000000f39fd6e51aad88f6f4ce6ab8827279cfffb9226600000000000000000000000000000000000000000000d3c21bcecceda1000000",
        "nonce": "0x19",
        "chainId": "0x7a6a"
      },
      "additionalContracts": [],
      "isFixedGasLimit": false
    },
    {
      "hash": "0x3cd2ab0ad9d6eaac90c664b94da29fc341b517bbcf6cf41ee5aab807e24a3619",
      "transactionType": "CALL",
      "contractName": "MockMintableToken",
      "contractAddress": "0xa85233c63b9ee964add6f2cffe00fd84eb32338f",
      "function": "mint(address,uint256)",
      "arguments": [
        "0x70997970C51812dc3A010C7d01b50e0d17dc79C8",
        "1000000000000000000000000"
      ],
      "transaction": {
        "from": "0xf39fd6e51aad88f6f4ce6ab8827279cfffb92266",
        "to": "0xa85233c63b9ee964add6f2cffe00fd84eb32338f",
        "gas": "0x12368",
        "value": "0x0",
        "input": "0x40c10f1900000000000000000000000070997970c51812dc3a010c7d01b50e0d17dc79c800000000000000000000000000000000000000000000d3c21bcecceda1000000",
        "nonce": "0x1a",
        "chainId": "0x7a6a"
      },
      "additionalContracts": [],
      "isFixedGasLimit": false
    },
    {
      "hash": "0x4cdd69c4506ea69dd70743b9585183b3c58f38a26ef02bd6fcda9b5f7ce9bd87",
      "transactionType": "CALL",
      "contractName": "MockMintableToken",
      "contractAddress": "0xa85233c63b9ee964add6f2cffe00fd84eb32338f",
      "function": "mint(address,uint256)",
      "arguments": [
        "0x3C44CdDdB6a900fa2b585dd299e03d12FA4293BC",
        "1000000000000000000000000"
      ],
      "transaction": {
        "from": "0xf39fd6e51aad88f6f4ce6ab8827279cfffb92266",
        "to": "0xa85233c63b9ee964add6f2cffe00fd84eb32338f",
        "gas": "0x11327",
        "value": "0x0",
        "input": "0x40c10f190000000000000000000000003c44cdddb6a900fa2b585dd299e03d12fa4293bc00000000000000000000000000000000000000000000d3c21bcecceda1000000",
        "nonce": "0x1b",
        "chainId": "0x7a6a"
      },
      "additionalContracts": [],
      "isFixedGasLimit": false
    }
  ],
  "receipts": [
    {
      "status": "0x1",
      "cumulativeGasUsed": "0x7c713",
      "logs": [],
      "logsBloom": "0x00000000000000000000000000000000000000000000000000000000000000000000000000000000000000000000000000000000000000000000000000000000000000000000000000000000000000000000000000000000000000000000000000000000000000000000000000000000000000000000000000000000000000000000000000000000000000000000000000000000000000000000000000000000000000000000000000000000000000000000000000000000000000000000000000000000000000000000000000000000000000000000000000000000000000000000000000000000000000000000000000000000000000000000000000000000",
      "type": "0x2",
      "transactionHash": "0xdb0177fe273844a1206dd51d7d55f504c03b210202032d3e096ab4de14eb5161",
      "transactionIndex": "0x0",
      "blockHash": "0x5af49872909603bcb833ab6f46aeaf5fee852895d8c1459681e5bd38c7f580bd",
      "blockNumber": "0x60",
      "gasUsed": "0x7c713",
      "effectiveGasPrice": "0xd8c",
      "blobGasPrice": "0x1",
      "from": "0xf39fd6e51aad88f6f4ce6ab8827279cfffb92266",
      "to": null,
      "contractAddress": "0x959922be3caee4b8cd9a407cc3ac1c251c2007b1"
    },
    {
      "status": "0x1",
      "cumulativeGasUsed": "0x8d120",
      "logs": [
        {
          "address": "0x959922be3caee4b8cd9a407cc3ac1c251c2007b1",
          "topics": [
            "0xddf252ad1be2c89b69c2b068fc378daa952ba7f163c4a11628f55a4df523b3ef",
            "0x0000000000000000000000000000000000000000000000000000000000000000",
            "0x000000000000000000000000f39fd6e51aad88f6f4ce6ab8827279cfffb92266"
          ],
          "data": "0x00000000000000000000000000000000000000000000d3c21bcecceda1000000",
          "blockHash": "0x5af49872909603bcb833ab6f46aeaf5fee852895d8c1459681e5bd38c7f580bd",
          "blockNumber": "0x60",
          "blockTimestamp": "0x698ede5f",
          "transactionHash": "0x690acd6c3ce15bc8e52a0587638886d28610d0d16a68d2b4f6b70e9dbce5de42",
          "transactionIndex": "0x1",
          "logIndex": "0x0",
          "removed": false
        }
      ],
      "logsBloom": "0x00000000000000000000000000000000000000000000000000000000000000000000000000000000000000000000000000000000000000000000000000000000000000000000000000000008000000000000000000000000000000000000000000000000020000000020000100000800000000000000000000000010000000000000000000000000000000000000000000000000000000000000000000000000000000000000000000200000000000000000000000000000000000000000000000000002000000200000000000000000000000002000000000000000000020000000000000000000010000000000000000000000000000000000000000000000",
      "type": "0x2",
      "transactionHash": "0x690acd6c3ce15bc8e52a0587638886d28610d0d16a68d2b4f6b70e9dbce5de42",
      "transactionIndex": "0x1",
      "blockHash": "0x5af49872909603bcb833ab6f46aeaf5fee852895d8c1459681e5bd38c7f580bd",
      "blockNumber": "0x60",
      "gasUsed": "0x10a0d",
      "effectiveGasPrice": "0xd8c",
      "blobGasPrice": "0x1",
      "from": "0xf39fd6e51aad88f6f4ce6ab8827279cfffb92266",
      "to": "0x959922be3caee4b8cd9a407cc3ac1c251c2007b1",
      "contractAddress": null
    },
    {
      "status": "0x1",
      "cumulativeGasUsed": "0x99861",
      "logs": [
        {
          "address": "0x959922be3caee4b8cd9a407cc3ac1c251c2007b1",
          "topics": [
            "0xddf252ad1be2c89b69c2b068fc378daa952ba7f163c4a11628f55a4df523b3ef",
            "0x0000000000000000000000000000000000000000000000000000000000000000",
            "0x00000000000000000000000070997970c51812dc3a010c7d01b50e0d17dc79c8"
          ],
          "data": "0x00000000000000000000000000000000000000000000d3c21bcecceda1000000",
          "blockHash": "0x5af49872909603bcb833ab6f46aeaf5fee852895d8c1459681e5bd38c7f580bd",
          "blockNumber": "0x60",
          "blockTimestamp": "0x698ede5f",
          "transactionHash": "0x439b408e60aeec48d3eb8caf6ac46d1a1ae503a1cb38c325e1ebfb957762d7b5",
          "transactionIndex": "0x2",
          "logIndex": "0x1",
          "removed": false
        }
      ],
      "logsBloom": "0x00000000000000000002000000000000000000000000000000000000000000000000000000000000000000000000000000000000000000000000000000000000000000000000000000000008000000000000000000000000000000000000000000000800020000000020000000000800000000000000000000000010000000000000000000000000000000000000000000000000000000000000000000000000000000000000000000200000000000000000000000000000000000000000000000000002000000000000000000000000000000000000000000000000000020000000000000000000010000000000000001000000000000000000000000000000",
      "type": "0x2",
      "transactionHash": "0x439b408e60aeec48d3eb8caf6ac46d1a1ae503a1cb38c325e1ebfb957762d7b5",
      "transactionIndex": "0x2",
      "blockHash": "0x5af49872909603bcb833ab6f46aeaf5fee852895d8c1459681e5bd38c7f580bd",
      "blockNumber": "0x60",
      "gasUsed": "0xc741",
      "effectiveGasPrice": "0xd8c",
      "blobGasPrice": "0x1",
      "from": "0xf39fd6e51aad88f6f4ce6ab8827279cfffb92266",
      "to": "0x959922be3caee4b8cd9a407cc3ac1c251c2007b1",
      "contractAddress": null
    },
    {
      "status": "0x1",
      "cumulativeGasUsed": "0xa5f96",
      "logs": [
        {
          "address": "0x959922be3caee4b8cd9a407cc3ac1c251c2007b1",
          "topics": [
            "0xddf252ad1be2c89b69c2b068fc378daa952ba7f163c4a11628f55a4df523b3ef",
            "0x0000000000000000000000000000000000000000000000000000000000000000",
            "0x0000000000000000000000003c44cdddb6a900fa2b585dd299e03d12fa4293bc"
          ],
          "data": "0x00000000000000000000000000000000000000000000d3c21bcecceda1000000",
          "blockHash": "0x5af49872909603bcb833ab6f46aeaf5fee852895d8c1459681e5bd38c7f580bd",
          "blockNumber": "0x60",
          "blockTimestamp": "0x698ede5f",
          "transactionHash": "0xd16cdaf319a1714ca6773868b3f7176f108bf84a7c60402cac75a16f72050493",
          "transactionIndex": "0x3",
          "logIndex": "0x2",
          "removed": false
        }
      ],
      "logsBloom": "0x00000000000000000000000000000000000000000000000000000000000000000000000000000000000000000000000000000000000000000000000000100000000000000000000000000008000000000000000000000000000000000000000000000000020000000020000000000800000800000000000000000010000000000000000000000000000000000000000000000000000000000000000000000000000000000000200000200000000000000000000000000000000000000000000000000002000000000000000000000000000000000000000000000000000020000000000000000000010000000000000000000000000000000000000000000000",
      "type": "0x2",
      "transactionHash": "0xd16cdaf319a1714ca6773868b3f7176f108bf84a7c60402cac75a16f72050493",
      "transactionIndex": "0x3",
      "blockHash": "0x5af49872909603bcb833ab6f46aeaf5fee852895d8c1459681e5bd38c7f580bd",
      "blockNumber": "0x60",
      "gasUsed": "0xc735",
      "effectiveGasPrice": "0xd8c",
      "blobGasPrice": "0x1",
      "from": "0xf39fd6e51aad88f6f4ce6ab8827279cfffb92266",
      "to": "0x959922be3caee4b8cd9a407cc3ac1c251c2007b1",
      "contractAddress": null
    },
    {
      "status": "0x1",
      "cumulativeGasUsed": "0x1226a9",
      "logs": [],
      "logsBloom": "0x00000000000000000000000000000000000000000000000000000000000000000000000000000000000000000000000000000000000000000000000000000000000000000000000000000000000000000000000000000000000000000000000000000000000000000000000000000000000000000000000000000000000000000000000000000000000000000000000000000000000000000000000000000000000000000000000000000000000000000000000000000000000000000000000000000000000000000000000000000000000000000000000000000000000000000000000000000000000000000000000000000000000000000000000000000000",
      "type": "0x2",
      "transactionHash": "0xb126d5517ceaa95cb1c19b0515b673b9ad4b4dfe9ca8f40bfd3b9417bbb5cb87",
      "transactionIndex": "0x4",
      "blockHash": "0x5af49872909603bcb833ab6f46aeaf5fee852895d8c1459681e5bd38c7f580bd",
      "blockNumber": "0x60",
      "gasUsed": "0x7c713",
      "effectiveGasPrice": "0xd8c",
      "blobGasPrice": "0x1",
      "from": "0xf39fd6e51aad88f6f4ce6ab8827279cfffb92266",
      "to": null,
      "contractAddress": "0xc6e7df5e7b4f2a278906862b61205850344d4e7d"
    },
    {
      "status": "0x1",
      "cumulativeGasUsed": "0x1330b6",
      "logs": [
        {
          "address": "0xc6e7df5e7b4f2a278906862b61205850344d4e7d",
          "topics": [
            "0xddf252ad1be2c89b69c2b068fc378daa952ba7f163c4a11628f55a4df523b3ef",
            "0x0000000000000000000000000000000000000000000000000000000000000000",
            "0x000000000000000000000000f39fd6e51aad88f6f4ce6ab8827279cfffb92266"
          ],
          "data": "0x00000000000000000000000000000000000000000000d3c21bcecceda1000000",
          "blockHash": "0x5af49872909603bcb833ab6f46aeaf5fee852895d8c1459681e5bd38c7f580bd",
          "blockNumber": "0x60",
          "blockTimestamp": "0x698ede5f",
          "transactionHash": "0xd9a6ac1b9ab01a376cd8f552a5ee0da02aafb590d7cf35bb8773b5dbfcea1819",
          "transactionIndex": "0x5",
          "logIndex": "0x3",
          "removed": false
        }
      ],
      "logsBloom": "0x00000000000000000000000000000000000000000000000000000000000000000000000000000000000000800000000000000000000000000000000000000000000000000000000000000008000000000000000000000000000000000000000000000000020000000000000100000800000000000000000000000010000000000000000000000000000000000000000000000000000000000000000000000000000000000000000000000000000000000000000000000000000000000000000000000002000000200000000000100000000000002000000000000000000020000000000000000000000000800000000000000000000000000000000000000000",
      "type": "0x2",
      "transactionHash": "0xd9a6ac1b9ab01a376cd8f552a5ee0da02aafb590d7cf35bb8773b5dbfcea1819",
      "transactionIndex": "0x5",
      "blockHash": "0x5af49872909603bcb833ab6f46aeaf5fee852895d8c1459681e5bd38c7f580bd",
      "blockNumber": "0x60",
      "gasUsed": "0x10a0d",
      "effectiveGasPrice": "0xd8c",
      "blobGasPrice": "0x1",
      "from": "0xf39fd6e51aad88f6f4ce6ab8827279cfffb92266",
      "to": "0xc6e7df5e7b4f2a278906862b61205850344d4e7d",
      "contractAddress": null
    },
    {
      "status": "0x1",
      "cumulativeGasUsed": "0x13f7f7",
      "logs": [
        {
          "address": "0xc6e7df5e7b4f2a278906862b61205850344d4e7d",
          "topics": [
            "0xddf252ad1be2c89b69c2b068fc378daa952ba7f163c4a11628f55a4df523b3ef",
            "0x0000000000000000000000000000000000000000000000000000000000000000",
            "0x00000000000000000000000070997970c51812dc3a010c7d01b50e0d17dc79c8"
          ],
          "data": "0x00000000000000000000000000000000000000000000d3c21bcecceda1000000",
          "blockHash": "0x5af49872909603bcb833ab6f46aeaf5fee852895d8c1459681e5bd38c7f580bd",
          "blockNumber": "0x60",
          "blockTimestamp": "0x698ede5f",
          "transactionHash": "0x0cd696d86c93973fc8497fdf806489b6b7fcbdb5142c112ecf288717a854dc4b",
          "transactionIndex": "0x6",
          "logIndex": "0x4",
          "removed": false
        }
      ],
      "logsBloom": "0x00000000000000000002000000000000000000000000000000000000000000000000000000000000000000800000000000000000000000000000000000000000000000000000000000000008000000000000000000000000000000000000000000000800020000000000000000000800000000000000000000000010000000000000000000000000000000000000000000000000000000000000000000000000000000000000000000000000000000000000000000000000000000000000000000000002000000000000000000100000000000000000000000000000000020000000000000000000000000800000000001000000000000000000000000000000",
      "type": "0x2",
      "transactionHash": "0x0cd696d86c93973fc8497fdf806489b6b7fcbdb5142c112ecf288717a854dc4b",
      "transactionIndex": "0x6",
      "blockHash": "0x5af49872909603bcb833ab6f46aeaf5fee852895d8c1459681e5bd38c7f580bd",
      "blockNumber": "0x60",
      "gasUsed": "0xc741",
      "effectiveGasPrice": "0xd8c",
      "blobGasPrice": "0x1",
      "from": "0xf39fd6e51aad88f6f4ce6ab8827279cfffb92266",
      "to": "0xc6e7df5e7b4f2a278906862b61205850344d4e7d",
      "contractAddress": null
    },
    {
      "status": "0x1",
      "cumulativeGasUsed": "0x14bf2c",
      "logs": [
        {
          "address": "0xc6e7df5e7b4f2a278906862b61205850344d4e7d",
          "topics": [
            "0xddf252ad1be2c89b69c2b068fc378daa952ba7f163c4a11628f55a4df523b3ef",
            "0x0000000000000000000000000000000000000000000000000000000000000000",
            "0x0000000000000000000000003c44cdddb6a900fa2b585dd299e03d12fa4293bc"
          ],
          "data": "0x00000000000000000000000000000000000000000000d3c21bcecceda1000000",
          "blockHash": "0x5af49872909603bcb833ab6f46aeaf5fee852895d8c1459681e5bd38c7f580bd",
          "blockNumber": "0x60",
          "blockTimestamp": "0x698ede5f",
          "transactionHash": "0xf4cc3e72a40dab440819d914db02a6f71472c5421ac390834800ae72fbdc6d03",
          "transactionIndex": "0x7",
          "logIndex": "0x5",
          "removed": false
        }
      ],
      "logsBloom": "0x00000000000000000000000000000000000000000000000000000000000000000000000000000000000000800000000000000000000000000000000000100000000000000000000000000008000000000000000000000000000000000000000000000000020000000000000000000800000800000000000000000010000000000000000000000000000000000000000000000000000000000000000000000000000000000000200000000000000000000000000000000000000000000000000000000002000000000000000000100000000000000000000000000000000020000000000000000000000000800000000000000000000000000000000000000000",
      "type": "0x2",
      "transactionHash": "0xf4cc3e72a40dab440819d914db02a6f71472c5421ac390834800ae72fbdc6d03",
      "transactionIndex": "0x7",
      "blockHash": "0x5af49872909603bcb833ab6f46aeaf5fee852895d8c1459681e5bd38c7f580bd",
      "blockNumber": "0x60",
      "gasUsed": "0xc735",
      "effectiveGasPrice": "0xd8c",
      "blobGasPrice": "0x1",
      "from": "0xf39fd6e51aad88f6f4ce6ab8827279cfffb92266",
      "to": "0xc6e7df5e7b4f2a278906862b61205850344d4e7d",
      "contractAddress": null
    },
    {
      "status": "0x1",
      "cumulativeGasUsed": "0x1c863f",
      "logs": [],
      "logsBloom": "0x00000000000000000000000000000000000000000000000000000000000000000000000000000000000000000000000000000000000000000000000000000000000000000000000000000000000000000000000000000000000000000000000000000000000000000000000000000000000000000000000000000000000000000000000000000000000000000000000000000000000000000000000000000000000000000000000000000000000000000000000000000000000000000000000000000000000000000000000000000000000000000000000000000000000000000000000000000000000000000000000000000000000000000000000000000000",
      "type": "0x2",
      "transactionHash": "0xb919d70396861d4341d388e00afbe0369dcadef2a3f4492057ab937b1dc320b2",
      "transactionIndex": "0x8",
      "blockHash": "0x5af49872909603bcb833ab6f46aeaf5fee852895d8c1459681e5bd38c7f580bd",
      "blockNumber": "0x60",
      "gasUsed": "0x7c713",
      "effectiveGasPrice": "0xd8c",
      "blobGasPrice": "0x1",
      "from": "0xf39fd6e51aad88f6f4ce6ab8827279cfffb92266",
      "to": null,
      "contractAddress": "0xa85233c63b9ee964add6f2cffe00fd84eb32338f"
    },
    {
      "status": "0x1",
      "cumulativeGasUsed": "0x1d904c",
      "logs": [
        {
          "address": "0xa85233c63b9ee964add6f2cffe00fd84eb32338f",
          "topics": [
            "0xddf252ad1be2c89b69c2b068fc378daa952ba7f163c4a11628f55a4df523b3ef",
            "0x0000000000000000000000000000000000000000000000000000000000000000",
            "0x000000000000000000000000f39fd6e51aad88f6f4ce6ab8827279cfffb92266"
          ],
          "data": "0x00000000000000000000000000000000000000000000d3c21bcecceda1000000",
          "blockHash": "0x5af49872909603bcb833ab6f46aeaf5fee852895d8c1459681e5bd38c7f580bd",
          "blockNumber": "0x60",
          "blockTimestamp": "0x698ede5f",
          "transactionHash": "0x29c37029b48296946adf0dee7cb0301e2a590db7910bec12495ab3671f8cfd3d",
          "transactionIndex": "0x9",
          "logIndex": "0x6",
          "removed": false
        }
      ],
      "logsBloom": "0x00000000000000000000000000000000000000000000000000000000000000000000000000000000080000000000000000000000000000000000000000000000000000000000000000000008000000000000000000000000000000000040000000000000020000000000000100000800000000000000000000000010000000000000000000000000000000000000000000000000000000000000000000000000000000000000000000000000000000000000000008000000000000000000000000000002000000200000000000000000000000002000000000000000000020000000000000000000000000000000000000000000000000000000000000000000",
      "type": "0x2",
      "transactionHash": "0x29c37029b48296946adf0dee7cb0301e2a590db7910bec12495ab3671f8cfd3d",
      "transactionIndex": "0x9",
      "blockHash": "0x5af49872909603bcb833ab6f46aeaf5fee852895d8c1459681e5bd38c7f580bd",
      "blockNumber": "0x60",
      "gasUsed": "0x10a0d",
      "effectiveGasPrice": "0xd8c",
      "blobGasPrice": "0x1",
      "from": "0xf39fd6e51aad88f6f4ce6ab8827279cfffb92266",
      "to": "0xa85233c63b9ee964add6f2cffe00fd84eb32338f",
      "contractAddress": null
    },
    {
      "status": "0x1",
      "cumulativeGasUsed": "0x1e578d",
      "logs": [
        {
          "address": "0xa85233c63b9ee964add6f2cffe00fd84eb32338f",
          "topics": [
            "0xddf252ad1be2c89b69c2b068fc378daa952ba7f163c4a11628f55a4df523b3ef",
            "0x0000000000000000000000000000000000000000000000000000000000000000",
            "0x00000000000000000000000070997970c51812dc3a010c7d01b50e0d17dc79c8"
          ],
          "data": "0x00000000000000000000000000000000000000000000d3c21bcecceda1000000",
          "blockHash": "0x5af49872909603bcb833ab6f46aeaf5fee852895d8c1459681e5bd38c7f580bd",
          "blockNumber": "0x60",
          "blockTimestamp": "0x698ede5f",
          "transactionHash": "0x3cd2ab0ad9d6eaac90c664b94da29fc341b517bbcf6cf41ee5aab807e24a3619",
          "transactionIndex": "0xa",
          "logIndex": "0x7",
          "removed": false
        }
      ],
      "logsBloom": "0x00000000000000000002000000000000000000000000000000000000000000000000000000000000080000000000000000000000000000000000000000000000000000000000000000000008000000000000000000000000000000000040000000000800020000000000000000000800000000000000000000000010000000000000000000000000000000000000000000000000000000000000000000000000000000000000000000000000000000000000000008000000000000000000000000000002000000000000000000000000000000000000000000000000000020000000000000000000000000000000000001000000000000000000000000000000",
      "type": "0x2",
      "transactionHash": "0x3cd2ab0ad9d6eaac90c664b94da29fc341b517bbcf6cf41ee5aab807e24a3619",
      "transactionIndex": "0xa",
      "blockHash": "0x5af49872909603bcb833ab6f46aeaf5fee852895d8c1459681e5bd38c7f580bd",
      "blockNumber": "0x60",
      "gasUsed": "0xc741",
      "effectiveGasPrice": "0xd8c",
      "blobGasPrice": "0x1",
      "from": "0xf39fd6e51aad88f6f4ce6ab8827279cfffb92266",
      "to": "0xa85233c63b9ee964add6f2cffe00fd84eb32338f",
      "contractAddress": null
    },
    {
      "status": "0x1",
      "cumulativeGasUsed": "0x1f1ec2",
      "logs": [
        {
          "address": "0xa85233c63b9ee964add6f2cffe00fd84eb32338f",
          "topics": [
            "0xddf252ad1be2c89b69c2b068fc378daa952ba7f163c4a11628f55a4df523b3ef",
            "0x0000000000000000000000000000000000000000000000000000000000000000",
            "0x0000000000000000000000003c44cdddb6a900fa2b585dd299e03d12fa4293bc"
          ],
          "data": "0x00000000000000000000000000000000000000000000d3c21bcecceda1000000",
          "blockHash": "0x5af49872909603bcb833ab6f46aeaf5fee852895d8c1459681e5bd38c7f580bd",
          "blockNumber": "0x60",
          "blockTimestamp": "0x698ede5f",
          "transactionHash": "0x4cdd69c4506ea69dd70743b9585183b3c58f38a26ef02bd6fcda9b5f7ce9bd87",
          "transactionIndex": "0xb",
          "logIndex": "0x8",
          "removed": false
        }
      ],
      "logsBloom": "0x00000000000000000000000000000000000000000000000000000000000000000000000000000000080000000000000000000000000000000000000000100000000000000000000000000008000000000000000000000000000000000040000000000000020000000000000000000800000800000000000000000010000000000000000000000000000000000000000000000000000000000000000000000000000000000000200000000000000000000000000008000000000000000000000000000002000000000000000000000000000000000000000000000000000020000000000000000000000000000000000000000000000000000000000000000000",
      "type": "0x2",
      "transactionHash": "0x4cdd69c4506ea69dd70743b9585183b3c58f38a26ef02bd6fcda9b5f7ce9bd87",
      "transactionIndex": "0xb",
      "blockHash": "0x5af49872909603bcb833ab6f46aeaf5fee852895d8c1459681e5bd38c7f580bd",
      "blockNumber": "0x60",
      "gasUsed": "0xc735",
      "effectiveGasPrice": "0xd8c",
      "blobGasPrice": "0x1",
      "from": "0xf39fd6e51aad88f6f4ce6ab8827279cfffb92266",
      "to": "0xa85233c63b9ee964add6f2cffe00fd84eb32338f",
      "contractAddress": null
    }
  ],
  "libraries": [],
  "pending": [],
  "returns": {},
  "timestamp": 1770970719710,
  "chain": 31338,
  "commit": "7915eae"
}