{
  "transactions": [
    {
      "hash": "0x026d1da2d40f0896f0543a3b66e98b048a85721423be9d9b104872dd594ee8a9",
      "transactionType": "CREATE",
      "contractName": "MockMintableToken",
      "contractAddress": "0xf4b146fba71f41e0592668ffbf264f1d186b2ca8",
      "function": null,
      "arguments": [
        "Token A",
        "TKNA",
        "18"
      ],
      "transaction": {
        "from": "0xf39fd6e51aad88f6f4ce6ab8827279cfffb92266",
        "gas": "0xa1c65",
        "value": "0x0",
        "input": "0x60a06040523461033057610ad08038038061001981610334565b9283398101906060818303126103305780516001600160401b0381116103305782610045918301610359565b60208201519092906001600160401b03811161033057604091610069918401610359565b91015160ff811681036103305782516001600160401b03811161024157600354600181811c91168015610326575b602082101461022357601f81116102c3575b506020601f821160011461026057819293945f92610255575b50508160011b915f199060031b1c1916176003555b81516001600160401b03811161024157600454600181811c91168015610237575b602082101461022357601f81116101c0575b50602092601f821160011461015f57928192935f92610154575b50508160011b915f199060031b1c1916176004555b60805260405161072590816103ab8239608051816103c70152f35b015190505f80610124565b601f1982169360045f52805f20915f5b8681106101a85750836001959610610190575b505050811b01600455610139565b01515f1960f88460031b161c191690555f8080610182565b9192602060018192868501518155019401920161016f565b60045f527f8a35acfbc15ff81a39ae7d344fd709f28e8600b4aa8c65c6b64bfe7fe36bd19b601f830160051c81019160208410610219575b601f0160051c01905b81811061020e575061010a565b5f8155600101610201565b90915081906101f8565b634e487b7160e01b5f52602260045260245ffd5b90607f16906100f8565b634e487b7160e01b5f52604160045260245ffd5b015190505f806100c2565b601f1982169060035f52805f20915f5b8181106102ab57509583600195969710610293575b505050811b016003556100d7565b01515f1960f88460031b161c191690555f8080610285565b9192602060018192868b015181550194019201610270565b60035f527fc2575a0e9e593c00f959f8c92f12db2869c3395a3b0502d05e2516446f71f85b601f830160051c8101916020841061031c575b601f0160051c01905b81811061031157506100a9565b5f8155600101610304565b90915081906102fb565b90607f1690610097565b5f80fd5b6040519190601f01601f191682016001600160401b0381118382101761024157604052565b81601f82011215610330578051906001600160401b03821161024157610388601f8301601f1916602001610334565b928284526020838301011161033057815f9260208093018386015e830101529056fe6080806040526004361015610012575f80fd5b5f3560e01c90816306fdde031461056957508063095ea7b3146104e757806318160ddd146104ca57806323b872dd146103eb578063313ce567146103ae57806340c10f191461030c57806342966c681461026c57806370a082311461023557806395d89b411461011a578063a9059cbb146100e95763dd62ed3e14610095575f80fd5b346100e55760403660031901126100e5576100ae610662565b6100b6610678565b6001600160a01b039182165f908152600160209081526040808320949093168252928352819020549051908152f35b5f80fd5b346100e55760403660031901126100e55761010f610105610662565b602435903361068e565b602060405160018152f35b346100e5575f3660031901126100e5576040515f6004548060011c9060018116801561022b575b602083108114610217578285529081156101fb57506001146101a6575b50819003601f01601f191681019067ffffffffffffffff8211818310176101925761018e82918260405282610638565b0390f35b634e487b7160e01b5f52604160045260245ffd5b905060045f527f8a35acfbc15ff81a39ae7d344fd709f28e8600b4aa8c65c6b64bfe7fe36bd19b5f905b8282106101e55750602091508201018261015e565b60018160209254838588010152019101906101d0565b90506020925060ff191682840152151560051b8201018261015e565b634e487b7160e01b5f52602260045260245ffd5b91607f1691610141565b346100e55760203660031901126100e5576001600160a01b03610256610662565b165f525f602052602060405f2054604051908152f35b346100e55760203660031901126100e55760043533156102f957335f525f60205260405f20548181106102e05790805f923384528360205203604083205580600254036002556040519081527fddf252ad1be2c89b69c2b068fc378daa952ba7f163c4a11628f55a4df523b3ef60203392a3005b63391434e360e21b5f523360045260245260445260645ffd5b634b637e8f60e11b5f525f60045260245ffd5b346100e55760403660031901126100e557610325610662565b6001600160a01b0316602435811561039b57600254908082018092116103875760207fddf252ad1be2c89b69c2b068fc378daa952ba7f163c4a11628f55a4df523b3ef915f9360025584845283825260408420818154019055604051908152a3005b634e487b7160e01b5f52601160045260245ffd5b63ec442f0560e01b5f525f60045260245ffd5b346100e5575f3660031901126100e557602060405160ff7f0000000000000000000000000000000000000000000000000000000000000000168152f35b346100e55760603660031901126100e557610404610662565b61040c610678565b6001600160a01b0382165f818152600160209081526040808320338452909152902054909260443592915f19811061044a575b5061010f935061068e565b8381106104af57841561049c5733156104895761010f945f52600160205260405f2060018060a01b0333165f526020528360405f20910390558461043f565b634a1406b160e11b5f525f60045260245ffd5b63e602df0560e01b5f525f60045260245ffd5b8390637dc7a0d960e11b5f523360045260245260445260645ffd5b346100e5575f3660031901126100e5576020600254604051908152f35b346100e55760403660031901126100e557610500610662565b60243590331561049c576001600160a01b031690811561048957335f52600160205260405f20825f526020528060405f20556040519081527f8c5be1e5ebec7d5bd14f71427d1e84f3dd0314c0f7b2291e5b200ac8c7c3b92560203392a3602060405160018152f35b346100e5575f3660031901126100e5575f6003548060011c9060018116801561062e575b602083108114610217578285529081156101fb57506001146105d95750819003601f01601f191681019067ffffffffffffffff8211818310176101925761018e82918260405282610638565b905060035f527fc2575a0e9e593c00f959f8c92f12db2869c3395a3b0502d05e2516446f71f85b5f905b8282106106185750602091508201018261015e565b6001816020925483858801015201910190610603565b91607f169161058d565b602060409281835280519182918282860152018484015e5f828201840152601f01601f1916010190565b600435906001600160a01b03821682036100e557565b602435906001600160a01b03821682036100e557565b6001600160a01b03169081156102f9576001600160a01b031691821561039b57815f525f60205260405f205481811061070c57817fddf252ad1be2c89b69c2b068fc378daa952ba7f163c4a11628f55a4df523b3ef92602092855f525f84520360405f2055845f525f825260405f20818154019055604051908152a3565b8263391434e360e21b5f5260045260245260445260645ffd000000000000000000000000000000000000000000000000000000000000006000000000000000000000000000000000000000000000000000000000000000a000000000000000000000000000000000000000000000000000000000000000120000000000000000000000000000000000000000000000000000000000000007546f6b656e2041000000000000000000000000000000000000000000000000000000000000000000000000000000000000000000000000000000000000000004544b4e4100000000000000000000000000000000000000000000000000000000",
        "nonce": "0x4f",
        "chainId": "0x7a6a"
      },
      "additionalContracts": [],
      "isFixedGasLimit": false
    },
    {
      "hash": "0x7e50ece1cc51f13f139008a09dea342f37dd67c45151289bb84b1d99ffa831a2",
      "transactionType": "CALL",
      "contractName": "MockMintableToken",
      "contractAddress": "0xf4b146fba71f41e0592668ffbf264f1d186b2ca8",
      "function": "mint(address,uint256)",
      "arguments": [
        "0xf39Fd6e51aad88F6F4ce6aB8827279cffFb92266",
        "1000000000000000000000000"
      ],
      "transaction": {
        "from": "0xf39fd6e51aad88f6f4ce6ab8827279cfffb92266",
        "to": "0xf4b146fba71f41e0592668ffbf264f1d186b2ca8",
        "gas": "0x16f7a",
        "value": "0x0",
        "input": "0x40c10f19000000000000000000000000f39fd6e51aad88f6f4ce6ab8827279cfffb9226600000000000000000000000000000000000000000000d3c21bcecceda1000000",
        "nonce": "0x50",
        "chainId": "0x7a6a"
      },
      "additionalContracts": [],
      "isFixedGasLimit": false
    },
    {
      "hash": "0x8cd2909e3e840c2bf62584664ef52a00ec3b853baf7baa1467357ba44b0e232f",
      "transactionType": "CALL",
      "contractName": "MockMintableToken",
      "contractAddress": "0xf4b146fba71f41e0592668ffbf264f1d186b2ca8",
      "function": "mint(address,uint256)",
      "arguments": [
        "0x70997970C51812dc3A010C7d01b50e0d17dc79C8",
        "1000000000000000000000000"
      ],
      "transaction": {
        "from": "0xf39fd6e51aad88f6f4ce6ab8827279cfffb92266",
        "to": "0xf4b146fba71f41e0592668ffbf264f1d186b2ca8",
        "gas": "0x12368",
        "value": "0x0",
        "input": "0x40c10f1900000000000000000000000070997970c51812dc3a010c7d01b50e0d17dc79c800000000000000000000000000000000000000000000d3c21bcecceda1000000",
        "nonce": "0x51",
        "chainId": "0x7a6a"
      },
      "additionalContracts": [],
      "isFixedGasLimit": false
    },
    {
      "hash": "0x0ae89aeab32122034655db89d510924ffe11ae80e62f8a7f517bd16169e84f15",
      "transactionType": "CALL",
      "contractName": "MockMintableToken",
      "contractAddress": "0xf4b146fba71f41e0592668ffbf264f1d186b2ca8",
      "function": "mint(address,uint256)",
      "arguments": [
        "0x3C44CdDdB6a900fa2b585dd299e03d12FA4293BC",
        "1000000000000000000000000"
      ],
      "transaction": {
        "from": "0xf39fd6e51aad88f6f4ce6ab8827279cfffb92266",
        "to": "0xf4b146fba71f41e0592668ffbf264f1d186b2ca8",
        "gas": "0x11327",
        "value": "0x0",
        "input": "0x40c10f190000000000000000000000003c44cdddb6a900fa2b585dd299e03d12fa4293bc00000000000000000000000000000000000000000000d3c21bcecceda1000000",
        "nonce": "0x52",
        "chainId": "0x7a6a"
      },
      "additionalContracts": [],
      "isFixedGasLimit": false
    },
    {
      "hash": "0x22638b4c19218d2286d03f767a4c982aa15549854e77851fa5e7ba03ae807fbc",
      "transactionType": "CREATE",
      "contractName": "MockMintableToken",
      "contractAddress": "0xd84379ceae14aa33c123af12424a37803f885889",
      "function": null,
      "arguments": [
        "Token B",
        "TKNB",
        "18"
      ],
      "transaction": {
        "from": "0xf39fd6e51aad88f6f4ce6ab8827279cfffb92266",
        "gas": "0xa1c65",
        "value": "0x0",
        "input": "0x60a06040523461033057610ad08038038061001981610334565b9283398101906060818303126103305780516001600160401b0381116103305782610045918301610359565b60208201519092906001600160401b03811161033057604091610069918401610359565b91015160ff811681036103305782516001600160401b03811161024157600354600181811c91168015610326575b602082101461022357601f81116102c3575b506020601f821160011461026057819293945f92610255575b50508160011b915f199060031b1c1916176003555b81516001600160401b03811161024157600454600181811c91168015610237575b602082101461022357601f81116101c0575b50602092601f821160011461015f57928192935f92610154575b50508160011b915f199060031b1c1916176004555b60805260405161072590816103ab8239608051816103c70152f35b015190505f80610124565b601f1982169360045f52805f20915f5b8681106101a85750836001959610610190575b505050811b01600455610139565b01515f1960f88460031b161c191690555f8080610182565b9192602060018192868501518155019401920161016f565b60045f527f8a35acfbc15ff81a39ae7d344fd709f28e8600b4aa8c65c6b64bfe7fe36bd19b601f830160051c81019160208410610219575b601f0160051c01905b81811061020e575061010a565b5f8155600101610201565b90915081906101f8565b634e487b7160e01b5f52602260045260245ffd5b90607f16906100f8565b634e487b7160e01b5f52604160045260245ffd5b015190505f806100c2565b601f1982169060035f52805f20915f5b8181106102ab57509583600195969710610293575b505050811b016003556100d7565b01515f1960f88460031b161c191690555f8080610285565b9192602060018192868b015181550194019201610270565b60035f527fc2575a0e9e593c00f959f8c92f12db2869c3395a3b0502d05e2516446f71f85b601f830160051c8101916020841061031c575b601f0160051c01905b81811061031157506100a9565b5f8155600101610304565b90915081906102fb565b90607f1690610097565b5f80fd5b6040519190601f01601f191682016001600160401b0381118382101761024157604052565b81601f82011215610330578051906001600160401b03821161024157610388601f8301601f1916602001610334565b928284526020838301011161033057815f9260208093018386015e830101529056fe6080806040526004361015610012575f80fd5b5f3560e01c90816306fdde031461056957508063095ea7b3146104e757806318160ddd146104ca57806323b872dd146103eb578063313ce567146103ae57806340c10f191461030c57806342966c681461026c57806370a082311461023557806395d89b411461011a578063a9059cbb146100e95763dd62ed3e14610095575f80fd5b346100e55760403660031901126100e5576100ae610662565b6100b6610678565b6001600160a01b039182165f908152600160209081526040808320949093168252928352819020549051908152f35b5f80fd5b346100e55760403660031901126100e55761010f610105610662565b602435903361068e565b602060405160018152f35b346100e5575f3660031901126100e5576040515f6004548060011c9060018116801561022b575b602083108114610217578285529081156101fb57506001146101a6575b50819003601f01601f191681019067ffffffffffffffff8211818310176101925761018e82918260405282610638565b0390f35b634e487b7160e01b5f52604160045260245ffd5b905060045f527f8a35acfbc15ff81a39ae7d344fd709f28e8600b4aa8c65c6b64bfe7fe36bd19b5f905b8282106101e55750602091508201018261015e565b60018160209254838588010152019101906101d0565b90506020925060ff191682840152151560051b8201018261015e565b634e487b7160e01b5f52602260045260245ffd5b91607f1691610141565b346100e55760203660031901126100e5576001600160a01b03610256610662565b165f525f602052602060405f2054604051908152f35b346100e55760203660031901126100e55760043533156102f957335f525f60205260405f20548181106102e05790805f923384528360205203604083205580600254036002556040519081527fddf252ad1be2c89b69c2b068fc378daa952ba7f163c4a11628f55a4df523b3ef60203392a3005b63391434e360e21b5f523360045260245260445260645ffd5b634b637e8f60e11b5f525f60045260245ffd5b346100e55760403660031901126100e557610325610662565b6001600160a01b0316602435811561039b57600254908082018092116103875760207fddf252ad1be2c89b69c2b068fc378daa952ba7f163c4a11628f55a4df523b3ef915f9360025584845283825260408420818154019055604051908152a3005b634e487b7160e01b5f52601160045260245ffd5b63ec442f0560e01b5f525f60045260245ffd5b346100e5575f3660031901126100e557602060405160ff7f0000000000000000000000000000000000000000000000000000000000000000168152f35b346100e55760603660031901126100e557610404610662565b61040c610678565b6001600160a01b0382165f818152600160209081526040808320338452909152902054909260443592915f19811061044a575b5061010f935061068e565b8381106104af57841561049c5733156104895761010f945f52600160205260405f2060018060a01b0333165f526020528360405f20910390558461043f565b634a1406b160e11b5f525f60045260245ffd5b63e602df0560e01b5f525f60045260245ffd5b8390637dc7a0d960e11b5f523360045260245260445260645ffd5b346100e5575f3660031901126100e5576020600254604051908152f35b346100e55760403660031901126100e557610500610662565b60243590331561049c576001600160a01b031690811561048957335f52600160205260405f20825f526020528060405f20556040519081527f8c5be1e5ebec7d5bd14f71427d1e84f3dd0314c0f7b2291e5b200ac8c7c3b92560203392a3602060405160018152f35b346100e5575f3660031901126100e5575f6003548060011c9060018116801561062e575b602083108114610217578285529081156101fb57506001146105d95750819003601f01601f191681019067ffffffffffffffff8211818310176101925761018e82918260405282610638565b905060035f527fc2575a0e9e593c00f959f8c92f12db2869c3395a3b0502d05e2516446f71f85b5f905b8282106106185750602091508201018261015e565b6001816020925483858801015201910190610603565b91607f169161058d565b602060409281835280519182918282860152018484015e5f828201840152601f01601f1916010190565b600435906001600160a01b03821682036100e557565b602435906001600160a01b03821682036100e557565b6001600160a01b03169081156102f9576001600160a01b031691821561039b57815f525f60205260405f205481811061070c57817fddf252ad1be2c89b69c2b068fc378daa952ba7f163c4a11628f55a4df523b3ef92602092855f525f84520360405f2055845f525f825260405f20818154019055604051908152a3565b8263391434e360e21b5f5260045260245260445260645ffd000000000000000000000000000000000000000000000000000000000000006000000000000000000000000000000000000000000000000000000000000000a000000000000000000000000000000000000000000000000000000000000000120000000000000000000000000000000000000000000000000000000000000007546f6b656e2042000000000000000000000000000000000000000000000000000000000000000000000000000000000000000000000000000000000000000004544b4e4200000000000000000000000000000000000000000000000000000000",
        "nonce": "0x53",
        "chainId": "0x7a6a"
      },
      "additionalContracts": [],
      "isFixedGasLimit": false
    },
    {
      "hash": "0xce5d21e09acfb0dc5eac4f17b92489ec7afd7f13baca3cf1aba6f10254e0e1ab",
      "transactionType": "CALL",
      "contractName": "MockMintableToken",
      "contractAddress": "0xd84379ceae14aa33c123af12424a37803f885889",
      "function": "mint(address,uint256)",
      "arguments": [
        "0xf39Fd6e51aad88F6F4ce6aB8827279cffFb92266",
        "1000000000000000000000000"
      ],
      "transaction": {
        "from": "0xf39fd6e51aad88f6f4ce6ab8827279cfffb92266",
        "to": "0xd84379ceae14aa33c123af12424a37803f885889",
        "gas": "0x16f7a",
        "value": "0x0",
        "input": "0x40c10f19000000000000000000000000f39fd6e51aad88f6f4ce6ab8827279cfffb9226600000000000000000000000000000000000000000000d3c21bcecceda1000000",
        "nonce": "0x54",
        "chainId": "0x7a6a"
      },
      "additionalContracts": [],
      "isFixedGasLimit": false
    },
    {
      "hash": "0xeb2ed87effc972d73b3a5705e44cb534c678e7bff0fc1028a1e71355f833c1ef",
      "transactionType": "CALL",
      "contractName": "MockMintableToken",
      "contractAddress": "0xd84379ceae14aa33c123af12424a37803f885889",
      "function": "mint(address,uint256)",
      "arguments": [
        "0x70997970C51812dc3A010C7d01b50e0d17dc79C8",
        "1000000000000000000000000"
      ],
      "transaction": {
        "from": "0xf39fd6e51aad88f6f4ce6ab8827279cfffb92266",
        "to": "0xd84379ceae14aa33c123af12424a37803f885889",
        "gas": "0x12368",
        "value": "0x0",
        "input": "0x40c10f1900000000000000000000000070997970c51812dc3a010c7d01b50e0d17dc79c800000000000000000000000000000000000000000000d3c21bcecceda1000000",
        "nonce": "0x55",
        "chainId": "0x7a6a"
      },
      "additionalContracts": [],
      "isFixedGasLimit": false
    },
    {
      "hash": "0x0cbaed3006ab1773f299d838725238d595daf8f5f12f172d068bf6207957cf13",
      "transactionType": "CALL",
      "contractName": "MockMintableToken",
      "contractAddress": "0xd84379ceae14aa33c123af12424a37803f885889",
      "function": "mint(address,uint256)",
      "arguments": [
        "0x3C44CdDdB6a900fa2b585dd299e03d12FA4293BC",
        "1000000000000000000000000"
      ],
      "transaction": {
        "from": "0xf39fd6e51aad88f6f4ce6ab8827279cfffb92266",
        "to": "0xd84379ceae14aa33c123af12424a37803f885889",
        "gas": "0x11327",
        "value": "0x0",
        "input": "0x40c10f190000000000000000000000003c44cdddb6a900fa2b585dd299e03d12fa4293bc00000000000000000000000000000000000000000000d3c21bcecceda1000000",
        "nonce": "0x56",
        "chainId": "0x7a6a"
      },
      "additionalContracts": [],
      "isFixedGasLimit": false
    },
    {
      "hash": "0x887b3f3cf00537ac241d0d72a11a6613c5ed9718db41ff192fc4f054cfbcff1b",
      "transactionType": "CREATE",
      "contractName": "MockMintableToken",
      "contractAddress": "0xc9a43158891282a2b1475592d5719c001986aaec",
      "function": null,
      "arguments": [
        "Token C",
        "TKNC",
        "18"
      ],
      "transaction": {
        "from": "0xf39fd6e51aad88f6f4ce6ab8827279cfffb92266",
        "gas": "0xa1c65",
        "value": "0x0",
        "input": "0x60a06040523461033057610ad08038038061001981610334565b9283398101906060818303126103305780516001600160401b0381116103305782610045918301610359565b60208201519092906001600160401b03811161033057604091610069918401610359565b91015160ff811681036103305782516001600160401b03811161024157600354600181811c91168015610326575b602082101461022357601f81116102c3575b506020601f821160011461026057819293945f92610255575b50508160011b915f199060031b1c1916176003555b81516001600160401b03811161024157600454600181811c91168015610237575b602082101461022357601f81116101c0575b50602092601f821160011461015f57928192935f92610154575b50508160011b915f199060031b1c1916176004555b60805260405161072590816103ab8239608051816103c70152f35b015190505f80610124565b601f1982169360045f52805f20915f5b8681106101a85750836001959610610190575b505050811b01600455610139565b01515f1960f88460031b161c191690555f8080610182565b9192602060018192868501518155019401920161016f565b60045f527f8a35acfbc15ff81a39ae7d344fd709f28e8600b4aa8c65c6b64bfe7fe36bd19b601f830160051c81019160208410610219575b601f0160051c01905b81811061020e575061010a565b5f8155600101610201565b90915081906101f8565b634e487b7160e01b5f52602260045260245ffd5b90607f16906100f8565b634e487b7160e01b5f52604160045260245ffd5b015190505f806100c2565b601f1982169060035f52805f20915f5b8181106102ab57509583600195969710610293575b505050811b016003556100d7565b01515f1960f88460031b161c191690555f8080610285565b9192602060018192868b015181550194019201610270565b60035f527fc2575a0e9e593c00f959f8c92f12db2869c3395a3b0502d05e2516446f71f85b601f830160051c8101916020841061031c575b601f0160051c01905b81811061031157506100a9565b5f8155600101610304565b90915081906102fb565b90607f1690610097565b5f80fd5b6040519190601f01601f191682016001600160401b0381118382101761024157604052565b81601f82011215610330578051906001600160401b03821161024157610388601f8301601f1916602001610334565b928284526020838301011161033057815f9260208093018386015e830101529056fe6080806040526004361015610012575f80fd5b5f3560e01c90816306fdde031461056957508063095ea7b3146104e757806318160ddd146104ca57806323b872dd146103eb578063313ce567146103ae57806340c10f191461030c57806342966c681461026c57806370a082311461023557806395d89b411461011a578063a9059cbb146100e95763dd62ed3e14610095575f80fd5b346100e55760403660031901126100e5576100ae610662565b6100b6610678565b6001600160a01b039182165f908152600160209081526040808320949093168252928352819020549051908152f35b5f80fd5b346100e55760403660031901126100e55761010f610105610662565b602435903361068e565b602060405160018152f35b346100e5575f3660031901126100e5576040515f6004548060011c9060018116801561022b575b602083108114610217578285529081156101fb57506001146101a6575b50819003601f01601f191681019067ffffffffffffffff8211818310176101925761018e82918260405282610638565b0390f35b634e487b7160e01b5f52604160045260245ffd5b905060045f527f8a35acfbc15ff81a39ae7d344fd709f28e8600b4aa8c65c6b64bfe7fe36bd19b5f905b8282106101e55750602091508201018261015e565b60018160209254838588010152019101906101d0565b90506020925060ff191682840152151560051b8201018261015e565b634e487b7160e01b5f52602260045260245ffd5b91607f1691610141565b346100e55760203660031901126100e5576001600160a01b03610256610662565b165f525f602052602060405f2054604051908152f35b346100e55760203660031901126100e55760043533156102f957335f525f60205260405f20548181106102e05790805f923384528360205203604083205580600254036002556040519081527fddf252ad1be2c89b69c2b068fc378daa952ba7f163c4a11628f55a4df523b3ef60203392a3005b63391434e360e21b5f523360045260245260445260645ffd5b634b637e8f60e11b5f525f60045260245ffd5b346100e55760403660031901126100e557610325610662565b6001600160a01b0316602435811561039b57600254908082018092116103875760207fddf252ad1be2c89b69c2b068fc378daa952ba7f163c4a11628f55a4df523b3ef915f9360025584845283825260408420818154019055604051908152a3005b634e487b7160e01b5f52601160045260245ffd5b63ec442f0560e01b5f525f60045260245ffd5b346100e5575f3660031901126100e557602060405160ff7f0000000000000000000000000000000000000000000000000000000000000000168152f35b346100e55760603660031901126100e557610404610662565b61040c610678565b6001600160a01b0382165f818152600160209081526040808320338452909152902054909260443592915f19811061044a575b5061010f935061068e565b8381106104af57841561049c5733156104895761010f945f52600160205260405f2060018060a01b0333165f526020528360405f20910390558461043f565b634a1406b160e11b5f525f60045260245ffd5b63e602df0560e01b5f525f60045260245ffd5b8390637dc7a0d960e11b5f523360045260245260445260645ffd5b346100e5575f3660031901126100e5576020600254604051908152f35b346100e55760403660031901126100e557610500610662565b60243590331561049c576001600160a01b031690811561048957335f52600160205260405f20825f526020528060405f20556040519081527f8c5be1e5ebec7d5bd14f71427d1e84f3dd0314c0f7b2291e5b200ac8c7c3b92560203392a3602060405160018152f35b346100e5575f3660031901126100e5575f6003548060011c9060018116801561062e575b602083108114610217578285529081156101fb57506001146105d95750819003601f01601f191681019067ffffffffffffffff8211818310176101925761018e82918260405282610638565b905060035f527fc2575a0e9e593c00f959f8c92f12db2869c3395a3b0502d05e2516446f71f85b5f905b8282106106185750602091508201018261015e565b6001816020925483858801015201910190610603565b91607f169161058d565b602060409281835280519182918282860152018484015e5f828201840152601f01601f1916010190565b600435906001600160a01b03821682036100e557565b602435906001600160a01b03821682036100e557565b6001600160a01b03169081156102f9576001600160a01b031691821561039b57815f525f60205260405f205481811061070c57817fddf252ad1be2c89b69c2b068fc378daa952ba7f163c4a11628f55a4df523b3ef92602092855f525f84520360405f2055845f525f825260405f20818154019055604051908152a3565b8263391434e360e21b5f5260045260245260445260645ffd000000000000000000000000000000000000000000000000000000000000006000000000000000000000000000000000000000000000000000000000000000a000000000000000000000000000000000000000000000000000000000000000120000000000000000000000000000000000000000000000000000000000000007546f6b656e2043000000000000000000000000000000000000000000000000000000000000000000000000000000000000000000000000000000000000000004544b4e4300000000000000000000000000000000000000000000000000000000",
        "nonce": "0x57",
        "chainId": "0x7a6a"
      },
      "additionalContracts": [],
      "isFixedGasLimit": false
    },
    {
      "hash": "0xa74d45b3a004fa80125895f42b2756d0e85500209129d506c0a9aabadb1b1cbd",
      "transactionType": "CALL",
      "contractName": "MockMintableToken",
      "contractAddress": "0xc9a43158891282a2b1475592d5719c001986aaec",
      "function": "mint(address,uint256)",
      "arguments": [
        "0xf39Fd6e51aad88F6F4ce6aB8827279cffFb92266",
        "1000000000000000000000000"
      ],
      "transaction": {
        "from": "0xf39fd6e51aad88f6f4ce6ab8827279cfffb92266",
        "to": "0xc9a43158891282a2b1475592d5719c001986aaec",
        "gas": "0x16f7a",
        "value": "0x0",
        "input": "0x40c10f19000000000000000000000000f39fd6e51aad88f6f4ce6ab8827279cfffb9226600000000000000000000000000000000000000000000d3c21bcecceda1000000",
        "nonce": "0x58",
        "chainId": "0x7a6a"
      },
      "additionalContracts": [],
      "isFixedGasLimit": false
    },
    {
      "hash": "0xded9af10d553194099d5d69e1408fc529347db521b16a8e86c6bfc878305738e",
      "transactionType": "CALL",
      "contractName": "MockMintableToken",
      "contractAddress": "0xc9a43158891282a2b1475592d5719c001986aaec",
      "function": "mint(address,uint256)",
      "arguments": [
        "0x70997970C51812dc3A010C7d01b50e0d17dc79C8",
        "1000000000000000000000000"
      ],
      "transaction": {
        "from": "0xf39fd6e51aad88f6f4ce6ab8827279cfffb92266",
        "to": "0xc9a43158891282a2b1475592d5719c001986aaec",
        "gas": "0x12368",
        "value": "0x0",
        "input": "0x40c10f1900000000000000000000000070997970c51812dc3a010c7d01b50e0d17dc79c800000000000000000000000000000000000000000000d3c21bcecceda1000000",
        "nonce": "0x59",
        "chainId": "0x7a6a"
      },
      "additionalContracts": [],
      "isFixedGasLimit": false
    },
    {
      "hash": "0x9468279f8c036ad3d60463902c42d6ce4bb2c8e64caf1f23d762efee0e6516fa",
      "transactionType": "CALL",
      "contractName": "MockMintableToken",
      "contractAddress": "0xc9a43158891282a2b1475592d5719c001986aaec",
      "function": "mint(address,uint256)",
      "arguments": [
        "0x3C44CdDdB6a900fa2b585dd299e03d12FA4293BC",
        "1000000000000000000000000"
      ],
      "transaction": {
        "from": "0xf39fd6e51aad88f6f4ce6ab8827279cfffb92266",
        "to": "0xc9a43158891282a2b1475592d5719c001986aaec",
        "gas": "0x11327",
        "value": "0x0",
        "input": "0x40c10f190000000000000000000000003c44cdddb6a900fa2b585dd299e03d12fa4293bc00000000000000000000000000000000000000000000d3c21bcecceda1000000",
        "nonce": "0x5a",
        "chainId": "0x7a6a"
      },
      "additionalContracts": [],
      "isFixedGasLimit": false
    }
  ],
  "receipts": [
    {
      "status": "0x1",
      "cumulativeGasUsed": "0x7c713",
      "logs": [],
      "logsBloom": "0x00000000000000000000000000000000000000000000000000000000000000000000000000000000000000000000000000000000000000000000000000000000000000000000000000000000000000000000000000000000000000000000000000000000000000000000000000000000000000000000000000000000000000000000000000000000000000000000000000000000000000000000000000000000000000000000000000000000000000000000000000000000000000000000000000000000000000000000000000000000000000000000000000000000000000000000000000000000000000000000000000000000000000000000000000000000",
      "type": "0x2",
      "transactionHash": "0x026d1da2d40f0896f0543a3b66e98b048a85721423be9d9b104872dd594ee8a9",
      "transactionIndex": "0x0",
      "blockHash": "0x5c81a786bd482d2e905b68455eab585e9fe00aea1416eae41c64157726eff686",
      "blockNumber": "0x152",
      "gasUsed": "0x7c713",
      "effectiveGasPrice": "0x8",
      "blobGasPrice": "0x1",
      "from": "0xf39fd6e51aad88f6f4ce6ab8827279cfffb92266",
      "to": null,
      "contractAddress": "0xf4b146fba71f41e0592668ffbf264f1d186b2ca8"
    },
    {
      "status": "0x1",
      "cumulativeGasUsed": "0x8d120",
      "logs": [
        {
          "address": "0xf4b146fba71f41e0592668ffbf264f1d186b2ca8",
          "topics": [
            "0xddf252ad1be2c89b69c2b068fc378daa952ba7f163c4a11628f55a4df523b3ef",
            "0x0000000000000000000000000000000000000000000000000000000000000000",
            "0x000000000000000000000000f39fd6e51aad88f6f4ce6ab8827279cfffb92266"
          ],
          "data": "0x00000000000000000000000000000000000000000000d3c21bcecceda1000000",
          "blockHash": "0x5c81a786bd482d2e905b68455eab585e9fe00aea1416eae41c64157726eff686",
          "blockNumber": "0x152",
          "blockTimestamp": "0x698f1566",
          "transactionHash": "0x7e50ece1cc51f13f139008a09dea342f37dd67c45151289bb84b1d99ffa831a2",
          "transactionIndex": "0x1",
          "logIndex": "0x0",
          "removed": false
        }
      ],
      "logsBloom": "0x00000000000000000000000000000000000000000000000000000000000000000000000000000000000000000000000000000000000000000000000000000000000000000000000000000008000000000000000000000000000000000400000000000000020000000000000100000800000000000000000000000010000000200000000000000000000000000000000000000000000000000000000000000000000000000000000000000000000000080000000000000000000000000000000000000002000000200000000000000000000000002000000000000000000020000000000000000000000000000000000000000000000000000000000000000000",
      "type": "0x2",
      "transactionHash": "0x7e50ece1cc51f13f139008a09dea342f37dd67c45151289bb84b1d99ffa831a2",
      "transactionIndex": "0x1",
      "blockHash": "0x5c81a786bd482d2e905b68455eab585e9fe00aea1416eae41c64157726eff686",
      "blockNumber": "0x152",
      "gasUsed": "0x10a0d",
      "effectiveGasPrice": "0x8",
      "blobGasPrice": "0x1",
      "from": "0xf39fd6e51aad88f6f4ce6ab8827279cfffb92266",
      "to": "0xf4b146fba71f41e0592668ffbf264f1d186b2ca8",
      "contractAddress": null
    },
    {
      "status": "0x1",
      "cumulativeGasUsed": "0x99861",
      "logs": [
        {
          "address": "0xf4b146fba71f41e0592668ffbf264f1d186b2ca8",
          "topics": [
            "0xddf252ad1be2c89b69c2b068fc378daa952ba7f163c4a11628f55a4df523b3ef",
            "0x0000000000000000000000000000000000000000000000000000000000000000",
            "0x00000000000000000000000070997970c51812dc3a010c7d01b50e0d17dc79c8"
          ],
          "data": "0x00000000000000000000000000000000000000000000d3c21bcecceda1000000",
          "blockHash": "0x5c81a786bd482d2e905b68455eab585e9fe00aea1416eae41c64157726eff686",
          "blockNumber": "0x152",
          "blockTimestamp": "0x698f1566",
          "transactionHash": "0x8cd2909e3e840c2bf62584664ef52a00ec3b853baf7baa1467357ba44b0e232f",
          "transactionIndex": "0x2",
          "logIndex": "0x1",
          "removed": false
        }
      ],
      "logsBloom": "0x00000000000000000002000000000000000000000000000000000000000000000000000000000000000000000000000000000000000000000000000000000000000000000000000000000008000000000000000000000000000000000400000000000800020000000000000000000800000000000000000000000010000000200000000000000000000000000000000000000000000000000000000000000000000000000000000000000000000000080000000000000000000000000000000000000002000000000000000000000000000000000000000000000000000020000000000000000000000000000000000001000000000000000000000000000000",
      "type": "0x2",
      "transactionHash": "0x8cd2909e3e840c2bf62584664ef52a00ec3b853baf7baa1467357ba44b0e232f",
      "transactionIndex": "0x2",
      "blockHash": "0x5c81a786bd482d2e905b68455eab585e9fe00aea1416eae41c64157726eff686",
      "blockNumber": "0x152",
      "gasUsed": "0xc741",
      "effectiveGasPrice": "0x8",
      "blobGasPrice": "0x1",
      "from": "0xf39fd6e51aad88f6f4ce6ab8827279cfffb92266",
      "to": "0xf4b146fba71f41e0592668ffbf264f1d186b2ca8",
      "contractAddress": null
    },
    {
      "status": "0x1",
      "cumulativeGasUsed": "0xa5f96",
      "logs": [
        {
          "address": "0xf4b146fba71f41e0592668ffbf264f1d186b2ca8",
          "topics": [
            "0xddf252ad1be2c89b69c2b068fc378daa952ba7f163c4a11628f55a4df523b3ef",
            "0x0000000000000000000000000000000000000000000000000000000000000000",
            "0x0000000000000000000000003c44cdddb6a900fa2b585dd299e03d12fa4293bc"
          ],
          "data": "0x00000000000000000000000000000000000000000000d3c21bcecceda1000000",
          "blockHash": "0x5c81a786bd482d2e905b68455eab585e9fe00aea1416eae41c64157726eff686",
          "blockNumber": "0x152",
          "blockTimestamp": "0x698f1566",
          "transactionHash": "0x0ae89aeab32122034655db89d510924ffe11ae80e62f8a7f517bd16169e84f15",
          "transactionIndex": "0x3",
          "logIndex": "0x2",
          "removed": false
        }
      ],
      "logsBloom": "0x00000000000000000000000000000000000000000000000000000000000000000000000000000000000000000000000000000000000000000000000000100000000000000000000000000008000000000000000000000000000000000400000000000000020000000000000000000800000800000000000000000010000000200000000000000000000000000000000000000000000000000000000000000000000000000000200000000000000000080000000000000000000000000000000000000002000000000000000000000000000000000000000000000000000020000000000000000000000000000000000000000000000000000000000000000000",
      "type": "0x2",
      "transactionHash": "0x0ae89aeab32122034655db89d510924ffe11ae80e62f8a7f517bd16169e84f15",
      "transactionIndex": "0x3",
      "blockHash": "0x5c81a786bd482d2e905b68455eab585e9fe00aea1416eae41c64157726eff686",
      "blockNumber": "0x152",
      "gasUsed": "0xc735",
      "effectiveGasPrice": "0x8",
      "blobGasPrice": "0x1",
      "from": "0xf39fd6e51aad88f6f4ce6ab8827279cfffb92266",
      "to": "0xf4b146fba71f41e0592668ffbf264f1d186b2ca8",
      "contractAddress": null
    },
    {
      "status": "0x1",
      "cumulativeGasUsed": "0x1226a9",
      "logs": [],
      "logsBloom": "0x00000000000000000000000000000000000000000000000000000000000000000000000000000000000000000000000000000000000000000000000000000000000000000000000000000000000000000000000000000000000000000000000000000000000000000000000000000000000000000000000000000000000000000000000000000000000000000000000000000000000000000000000000000000000000000000000000000000000000000000000000000000000000000000000000000000000000000000000000000000000000000000000000000000000000000000000000000000000000000000000000000000000000000000000000000000",
      "type": "0x2",
      "transactionHash": "0x22638b4c19218d2286d03f767a4c982aa15549854e77851fa5e7ba03ae807fbc",
      "transactionIndex": "0x4",
      "blockHash": "0x5c81a786bd482d2e905b68455eab585e9fe00aea1416eae41c64157726eff686",
      "blockNumber": "0x152",
      "gasUsed": "0x7c713",
      "effectiveGasPrice": "0x8",
      "blobGasPrice": "0x1",
      "from": "0xf39fd6e51aad88f6f4ce6ab8827279cfffb92266",
      "to": null,
      "contractAddress": "0xd84379ceae14aa33c123af12424a37803f885889"
    },
    {
      "status": "0x1",
      "cumulativeGasUsed": "0x1330b6",
      "logs": [
        {
          "address": "0xd84379ceae14aa33c123af12424a37803f885889",
          "topics": [
            "0xddf252ad1be2c89b69c2b068fc378daa952ba7f163c4a11628f55a4df523b3ef",
            "0x0000000000000000000000000000000000000000000000000000000000000000",
            "0x000000000000000000000000f39fd6e51aad88f6f4ce6ab8827279cfffb92266"
          ],
          "data": "0x00000000000000000000000000000000000000000000d3c21bcecceda1000000",
          "blockHash": "0x5c81a786bd482d2e905b68455eab585e9fe00aea1416eae41c64157726eff686",
          "blockNumber": "0x152",
          "blockTimestamp": "0x698f1566",
          "transactionHash": "0xce5d21e09acfb0dc5eac4f17b92489ec7afd7f13baca3cf1aba6f10254e0e1ab",
          "transactionIndex": "0x5",
          "logIndex": "0x3",
          "removed": false
        }
      ],
      "logsBloom": "0x00000000000000000000000000000000000000000000000000000000000000000000000000040000000000000000000000000000000000000000000000000000000000000000000000000008000000000000000000000010000000000000000000000000020000000000000100000800000000000000000000000010000000000000000000000000400000000000000000000000000000000000000000000000000000000000000000000000000000000000000000000000000000000000000000000002000000200000000000000000000000002000000000000000000020000000000000000000000000000000000000000000000000000000000000000000",
      "type": "0x2",
      "transactionHash": "0xce5d21e09acfb0dc5eac4f17b92489ec7afd7f13baca3cf1aba6f10254e0e1ab",
      "transactionIndex": "0x5",
      "blockHash": "0x5c81a786bd482d2e905b68455eab585e9fe00aea1416eae41c64157726eff686",
      "blockNumber": "0x152",
      "gasUsed": "0x10a0d",
      "effectiveGasPrice": "0x8",
      "blobGasPrice": "0x1",
      "from": "0xf39fd6e51aad88f6f4ce6ab8827279cfffb92266",
      "to": "0xd84379ceae14aa33c123af12424a37803f885889",
      "contractAddress": null
    },
    {
      "status": "0x1",
      "cumulativeGasUsed": "0x13f7f7",
      "logs": [
        {
          "address": "0xd84379ceae14aa33c123af12424a37803f885889",
          "topics": [
            "0xddf252ad1be2c89b69c2b068fc378daa952ba7f163c4a11628f55a4df523b3ef",
            "0x0000000000000000000000000000000000000000000000000000000000000000",
            "0x00000000000000000000000070997970c51812dc3a010c7d01b50e0d17dc79c8"
          ],
          "data": "0x00000000000000000000000000000000000000000000d3c21bcecceda1000000",
          "blockHash": "0x5c81a786bd482d2e905b68455eab585e9fe00aea1416eae41c64157726eff686",
          "blockNumber": "0x152",
          "blockTimestamp": "0x698f1566",
          "transactionHash": "0xeb2ed87effc972d73b3a5705e44cb534c678e7bff0fc1028a1e71355f833c1ef",
          "transactionIndex": "0x6",
          "logIndex": "0x4",
          "removed": false
        }
      ],
      "logsBloom": "0x00000000000000000002000000000000000000000000000000000000000000000000000000040000000000000000000000000000000000000000000000000000000000000000000000000008000000000000000000000010000000000000000000000800020000000000000000000800000000000000000000000010000000000000000000000000400000000000000000000000000000000000000000000000000000000000000000000000000000000000000000000000000000000000000000000002000000000000000000000000000000000000000000000000000020000000000000000000000000000000000001000000000000000000000000000000",
      "type": "0x2",
      "transactionHash": "0xeb2ed87effc972d73b3a5705e44cb534c678e7bff0fc1028a1e71355f833c1ef",
      "transactionIndex": "0x6",
      "blockHash": "0x5c81a786bd482d2e905b68455eab585e9fe00aea1416eae41c64157726eff686",
      "blockNumber": "0x152",
      "gasUsed": "0xc741",
      "effectiveGasPrice": "0x8",
      "blobGasPrice": "0x1",
      "from": "0xf39fd6e51aad88f6f4ce6ab8827279cfffb92266",
      "to": "0xd84379ceae14aa33c123af12424a37803f885889",
      "contractAddress": null
    },
    {
      "status": "0x1",
      "cumulativeGasUsed": "0x14bf2c",
      "logs": [
        {
          "address": "0xd84379ceae14aa33c123af12424a37803f885889",
          "topics": [
            "0xddf252ad1be2c89b69c2b068fc378daa952ba7f163c4a11628f55a4df523b3ef",
            "0x0000000000000000000000000000000000000000000000000000000000000000",
            "0x0000000000000000000000003c44cdddb6a900fa2b585dd299e03d12fa4293bc"
          ],
          "data": "0x00000000000000000000000000000000000000000000d3c21bcecceda1000000",
          "blockHash": "0x5c81a786bd482d2e905b68455eab585e9fe00aea1416eae41c64157726eff686",
          "blockNumber": "0x152",
          "blockTimestamp": "0x698f1566",
          "transactionHash": "0x0cbaed3006ab1773f299d838725238d595daf8f5f12f172d068bf6207957cf13",
          "transactionIndex": "0x7",
          "logIndex": "0x5",
          "removed": false
        }
      ],
      "logsBloom": "0x00000000000000000000000000000000000000000000000000000000000000000000000000040000000000000000000000000000000000000000000000100000000000000000000000000008000000000000000000000010000000000000000000000000020000000000000000000800000800000000000000000010000000000000000000000000400000000000000000000000000000000000000000000000000000000000200000000000000000000000000000000000000000000000000000000002000000000000000000000000000000000000000000000000000020000000000000000000000000000000000000000000000000000000000000000000",
      "type": "0x2",
      "transactionHash": "0x0cbaed3006ab1773f299d838725238d595daf8f5f12f172d068bf6207957cf13",
      "transactionIndex": "0x7",
      "blockHash": "0x5c81a786bd482d2e905b68455eab585e9fe00aea1416eae41c64157726eff686",
      "blockNumber": "0x152",
      "gasUsed": "0xc735",
      "effectiveGasPrice": "0x8",
      "blobGasPrice": "0x1",
      "from": "0xf39fd6e51aad88f6f4ce6ab8827279cfffb92266",
      "to": "0xd84379ceae14aa33c123af12424a37803f885889",
      "contractAddress": null
    },
    {
      "status": "0x1",
      "cumulativeGasUsed": "0x1c863f",
      "logs": [],
      "logsBloom": "0x00000000000000000000000000000000000000000000000000000000000000000000000000000000000000000000000000000000000000000000000000000000000000000000000000000000000000000000000000000000000000000000000000000000000000000000000000000000000000000000000000000000000000000000000000000000000000000000000000000000000000000000000000000000000000000000000000000000000000000000000000000000000000000000000000000000000000000000000000000000000000000000000000000000000000000000000000000000000000000000000000000000000000000000000000000000",
      "type": "0x2",
      "transactionHash": "0x887b3f3cf00537ac241d0d72a11a6613c5ed9718db41ff192fc4f054cfbcff1b",
      "transactionIndex": "0x8",
      "blockHash": "0x5c81a786bd482d2e905b68455eab585e9fe00aea1416eae41c64157726eff686",
      "blockNumber": "0x152",
      "gasUsed": "0x7c713",
      "effectiveGasPrice": "0x8",
      "blobGasPrice": "0x1",
      "from": "0xf39fd6e51aad88f6f4ce6ab8827279cfffb92266",
      "to": null,
      "contractAddress": "0xc9a43158891282a2b1475592d5719c001986aaec"
    },
    {
      "status": "0x1",
      "cumulativeGasUsed": "0x1d904c",
      "logs": [
        {
          "address": "0xc9a43158891282a2b1475592d5719c001986aaec",
          "topics": [
            "0xddf252ad1be2c89b69c2b068fc378daa952ba7f163c4a11628f55a4df523b3ef",
            "0x0000000000000000000000000000000000000000000000000000000000000000",
            "0x000000000000000000000000f39fd6e51aad88f6f4ce6ab8827279cfffb92266"
          ],
          "data": "0x00000000000000000000000000000000000000000000d3c21bcecceda1000000",
          "blockHash": "0x5c81a786bd482d2e905b68455eab585e9fe00aea1416eae41c64157726eff686",
          "blockNumber": "0x152",
          "blockTimestamp": "0x698f1566",
          "transactionHash": "0xa74d45b3a004fa80125895f42b2756d0e85500209129d506c0a9aabadb1b1cbd",
          "transactionIndex": "0x9",
          "logIndex": "0x6",
          "removed": false
        }
      ],
      "logsBloom": "0x00000800000000000000000000000000000000000000000000000000000000000000000000000000000000000000000000000000000000000000000000000000000000000000000000000008000000000000000000000000000000000000000000000000020000000000000100000800000000000000000000000010000000000000000000000000000000000000000000000000000200000000000000000000000000000000000000000000000000000000000000000000000000000000000000000202000000200000000000000000000000002000000000000000000020000000000000000000000000000000000000000000000000000000000000000000",
      "type": "0x2",
      "transactionHash": "0xa74d45b3a004fa80125895f42b2756d0e85500209129d506c0a9aabadb1b1cbd",
      "transactionIndex": "0x9",
      "blockHash": "0x5c81a786bd482d2e905b68455eab585e9fe00aea1416eae41c64157726eff686",
      "blockNumber": "0x152",
      "gasUsed": "0x10a0d",
      "effectiveGasPrice": "0x8",
      "blobGasPrice": "0x1",
      "from": "0xf39fd6e51aad88f6f4ce6ab8827279cfffb92266",
      "to": "0xc9a43158891282a2b1475592d5719c001986aaec",
      "contractAddress": null
    },
    {
      "status": "0x1",
      "cumulativeGasUsed": "0x1e578d",
      "logs": [
        {
          "address": "0xc9a43158891282a2b1475592d5719c001986aaec",
          "topics": [
            "0xddf252ad1be2c89b69c2b068fc378daa952ba7f163c4a11628f55a4df523b3ef",
            "0x0000000000000000000000000000000000000000000000000000000000000000",
            "0x00000000000000000000000070997970c51812dc3a010c7d01b50e0d17dc79c8"
          ],
          "data": "0x00000000000000000000000000000000000000000000d3c21bcecceda1000000",
          "blockHash": "0x5c81a786bd482d2e905b68455eab585e9fe00aea1416eae41c64157726eff686",
          "blockNumber": "0x152",
          "blockTimestamp": "0x698f1566",
          "transactionHash": "0xded9af10d553194099d5d69e1408fc529347db521b16a8e86c6bfc878305738e",
          "transactionIndex": "0xa",
          "logIndex": "0x7",
          "removed": false
        }
      ],
      "logsBloom": "0x00000800000000000002000000000000000000000000000000000000000000000000000000000000000000000000000000000000000000000000000000000000000000000000000000000008000000000000000000000000000000000000000000000800020000000000000000000800000000000000000000000010000000000000000000000000000000000000000000000000000200000000000000000000000000000000000000000000000000000000000000000000000000000000000000000202000000000000000000000000000000000000000000000000000020000000000000000000000000000000000001000000000000000000000000000000",
      "type": "0x2",
      "transactionHash": "0xded9af10d553194099d5d69e1408fc529347db521b16a8e86c6bfc878305738e",
      "transactionIndex": "0xa",
      "blockHash": "0x5c81a786bd482d2e905b68455eab585e9fe00aea1416eae41c64157726eff686",
      "blockNumber": "0x152",
      "gasUsed": "0xc741",
      "effectiveGasPrice": "0x8",
      "blobGasPrice": "0x1",
      "from": "0xf39fd6e51aad88f6f4ce6ab8827279cfffb92266",
      "to": "0xc9a43158891282a2b1475592d5719c001986aaec",
      "contractAddress": null
    },
    {
      "status": "0x1",
      "cumulativeGasUsed": "0x1f1ec2",
      "logs": [
        {
          "address": "0xc9a43158891282a2b1475592d5719c001986aaec",
          "topics": [
            "0xddf252ad1be2c89b69c2b068fc378daa952ba7f163c4a11628f55a4df523b3ef",
            "0x0000000000000000000000000000000000000000000000000000000000000000",
            "0x0000000000000000000000003c44cdddb6a900fa2b585dd299e03d12fa4293bc"
          ],
          "data": "0x00000000000000000000000000000000000000000000d3c21bcecceda1000000",
          "blockHash": "0x5c81a786bd482d2e905b68455eab585e9fe00aea1416eae41c64157726eff686",
          "blockNumber": "0x152",
          "blockTimestamp": "0x698f1566",
          "transactionHash": "0x9468279f8c036ad3d60463902c42d6ce4bb2c8e64caf1f23d762efee0e6516fa",
          "transactionIndex": "0xb",
          "logIndex": "0x8",
          "removed": false
        }
      ],
      "logsBloom": "0x00000800000000000000000000000000000000000000000000000000000000000000000000000000000000000000000000000000000000000000000000100000000000000000000000000008000000000000000000000000000000000000000000000000020000000000000000000800000800000000000000000010000000000000000000000000000000000000000000000000000200000000000000000000000000000000200000000000000000000000000000000000000000000000000000000202000000000000000000000000000000000000000000000000000020000000000000000000000000000000000000000000000000000000000000000000",
      "type": "0x2",
      "transactionHash": "0x9468279f8c036ad3d60463902c42d6ce4bb2c8e64caf1f23d762efee0e6516fa",
      "transactionIndex": "0xb",
      "blockHash": "0x5c81a786bd482d2e905b68455eab585e9fe00aea1416eae41c64157726eff686",
      "blockNumber": "0x152",
      "gasUsed": "0xc735",
      "effectiveGasPrice": "0x8",
      "blobGasPrice": "0x1",
      "from": "0xf39fd6e51aad88f6f4ce6ab8827279cfffb92266",
      "to": "0xc9a43158891282a2b1475592d5719c001986aaec",
      "contractAddress": null
    }
  ],
  "libraries": [],
  "pending": [],
  "returns": {},
  "timestamp": 1770984806885,
  "chain": 31338,
  "commit": "2ace11a"
}